{"contracts/TokenIT.sol":{"TokenIT":{"abi":[{"inputs":[{"internalType":"address","name":"_propertyNFT","type":"address"}],"stateMutability":"nonpayable","type":"constructor"},{"anonymous":false,"inputs":[{"indexed":true,"internalType":"uint256","name":"propertyId","type":"uint256"},{"indexed":true,"internalType":"address","name":"investor","type":"address"},{"indexed":false,"internalType":"uint256","name":"amount","type":"uint256"}],"name":"DividendsClaimed","type":"event"},{"anonymous":false,"inputs":[{"indexed":true,"internalType":"uint256","name":"propertyId","type":"uint256"},{"indexed":true,"internalType":"address","name":"shareToken","type":"address"},{"indexed":false,"internalType":"uint256","name":"totalShares","type":"uint256"},{"indexed":false,"internalType":"uint256","name":"sharePrice","type":"uint256"}],"name":"PropertyFractionalized","type":"event"},{"anonymous":false,"inputs":[{"indexed":true,"internalType":"uint256","name":"propertyId","type":"uint256"},{"indexed":false,"internalType":"uint256","name":"amount","type":"uint256"},{"indexed":false,"internalType":"uint256","name":"newRentPool","type":"uint256"}],"name":"RentDeposited","type":"event"},{"anonymous":false,"inputs":[{"indexed":true,"internalType":"uint256","name":"propertyId","type":"uint256"},{"indexed":true,"internalType":"address","name":"buyer","type":"address"},{"indexed":false,"internalType":"uint256","name":"amount","type":"uint256"},{"indexed":false,"internalType":"uint256","name":"cost","type":"uint256"}],"name":"SharesPurchased","type":"event"},{"anonymous":false,"inputs":[{"indexed":true,"internalType":"uint256","name":"propertyId","type":"uint256"},{"indexed":true,"internalType":"address","name":"from","type":"address"},{"indexed":true,"internalType":"address","name":"to","type":"address"},{"indexed":false,"internalType":"uint256","name":"amount","type":"uint256"}],"name":"SharesTransferred","type":"event"},{"inputs":[{"internalType":"uint256","name":"propertyId","type":"uint256"},{"internalType":"uint256","name":"amount","type":"uint256"}],"name":"buyShares","outputs":[],"stateMutability":"payable","type":"function"},{"inputs":[{"internalType":"uint256","name":"propertyId","type":"uint256"}],"name":"claimDividends","outputs":[],"stateMutability":"nonpayable","type":"function"},{"inputs":[{"internalType":"uint256","name":"","type":"uint256"},{"internalType":"address","name":"","type":"address"}],"name":"claimedDividends","outputs":[{"internalType":"uint256","name":"","type":"uint256"}],"stateMutability":"view","type":"function"},{"inputs":[{"internalType":"uint256","name":"propertyId","type":"uint256"}],"name":"depositRent","outputs":[],"stateMutability":"payable","type":"function"},{"inputs":[{"internalType":"uint256","name":"propertyId","type":"uint256"},{"internalType":"address","name":"investor","type":"address"}],"name":"getInvestorInfo","outputs":[{"internalType":"uint256","name":"sharesOwned","type":"uint256"},{"internalType":"uint256","name":"ownershipPercentage","type":"uint256"},{"internalType":"uint256","name":"pendingDividends","type":"uint256"}],"stateMutability":"view","type":"function"},{"inputs":[{"internalType":"uint256","name":"propertyId","type":"uint256"},{"internalType":"address","name":"investor","type":"address"}],"name":"getPendingDividends","outputs":[{"internalType":"uint256","name":"","type":"uint256"}],"stateMutability":"view","type":"function"},{"inputs":[{"internalType":"uint256","name":"propertyId","type":"uint256"}],"name":"getProperty","outputs":[{"components":[{"internalType":"uint256","name":"propertyId","type":"uint256"},{"internalType":"uint256","name":"nftTokenId","type":"uint256"},{"internalType":"address","name":"shareToken","type":"address"},{"internalType":"uint256","name":"totalShares","type":"uint256"},{"internalType":"uint256","name":"rentPool","type":"uint256"},{"internalType":"bool","name":"fractionalized","type":"bool"},{"internalType":"uint256","name":"sharePrice","type":"uint256"}],"internalType":"struct TokenIT.Property","name":"","type":"tuple"}],"stateMutability":"view","type":"function"},{"inputs":[],"name":"getTotalProperties","outputs":[{"internalType":"uint256","name":"","type":"uint256"}],"stateMutability":"view","type":"function"},{"inputs":[{"internalType":"uint256","name":"propertyId","type":"uint256"},{"internalType":"uint256","name":"nftTokenId","type":"uint256"}],"name":"linkPropertyNFT","outputs":[],"stateMutability":"nonpayable","type":"function"},{"inputs":[],"name":"owner","outputs":[{"internalType":"address","name":"","type":"address"}],"stateMutability":"view","type":"function"},{"inputs":[{"internalType":"uint256","name":"","type":"uint256"}],"name":"properties","outputs":[{"internalType":"uint256","name":"propertyId","type":"uint256"},{"internalType":"uint256","name":"nftTokenId","type":"uint256"},{"internalType":"address","name":"shareToken","type":"address"},{"internalType":"uint256","name":"totalShares","type":"uint256"},{"internalType":"uint256","name":"rentPool","type":"uint256"},{"internalType":"bool","name":"fractionalized","type":"bool"},{"internalType":"uint256","name":"sharePrice","type":"uint256"}],"stateMutability":"view","type":"function"},{"inputs":[],"name":"propertyCounter","outputs":[{"internalType":"uint256","name":"","type":"uint256"}],"stateMutability":"view","type":"function"},{"inputs":[],"name":"propertyNFT","outputs":[{"internalType":"contract PropertyNFT","name":"","type":"address"}],"stateMutability":"view","type":"function"},{"inputs":[{"internalType":"string","name":"location","type":"string"},{"internalType":"uint256","name":"value","type":"uint256"},{"internalType":"uint256","name":"totalShares","type":"uint256"}],"name":"registerAndFractionalizeProperty","outputs":[{"internalType":"uint256","name":"","type":"uint256"}],"stateMutability":"nonpayable","type":"function"},{"inputs":[{"internalType":"uint256","name":"propertyId","type":"uint256"},{"internalType":"address","name":"to","type":"address"},{"internalType":"uint256","name":"amount","type":"uint256"}],"name":"transferShares","outputs":[],"stateMutability":"nonpayable","type":"function"},{"stateMutability":"payable","type":"receive"}],"evm":{"bytecode":{"linkReferences":{},"object":"608060405234801561001057600080fd5b50604051612ba2380380612ba283398101604081905261002f916100bb565b6001600160a01b0381166100895760405162461bcd60e51b815260206004820152601b60248201527f496e76616c69642050726f70657274794e465420616464726573730000000000604482015260640160405180910390fd5b600080546001600160a01b039092166001600160a01b03199283161781556004805490921633179091556003556100eb565b6000602082840312156100cd57600080fd5b81516001600160a01b03811681146100e457600080fd5b9392505050565b612aa8806100fa6000396000f3fe608060405260043610620000ff5760003560e01c80638da5cb5b1162000095578063cff635671162000060578063cff635671462000323578063d090e47e146200035f578063f6e96ced1462000377578063f7b10808146200038e57600080fd5b80638da5cb5b14620002a0578063b45ebee314620002c2578063bd7047c414620002e7578063beebc5da146200030c57600080fd5b806337f7683811620000d657806337f7683814620001da5780633d7f8ee614620002155780636ea456ac146200023a57806384b9a6e6146200027b57600080fd5b806317aaf5ed146200010c57806332665ffb1462000131578063335756bb14620001b357600080fd5b366200010757005b600080fd5b3480156200011957600080fd5b506003545b6040519081526020015b60405180910390f35b3480156200013e57600080fd5b506200015662000150366004620015c2565b6200043d565b60405162000128919081518152602080830151908201526040808301516001600160a01b031690820152606080830151908201526080808301519082015260a08083015115159082015260c0918201519181019190915260e00190565b348015620001c057600080fd5b50620001d8620001d2366004620015dc565b62000532565b005b348015620001e757600080fd5b50600054620001fc906001600160a01b031681565b6040516001600160a01b03909116815260200162000128565b3480156200022257600080fd5b506200011e6200023436600462001615565b620005a8565b3480156200024757600080fd5b506200025f6200025936600462001700565b6200088b565b6040805193845260208401929092529082015260600162000128565b3480156200028857600080fd5b50620001d86200029a3660046200172f565b620009fe565b348015620002ad57600080fd5b50600454620001fc906001600160a01b031681565b348015620002cf57600080fd5b506200011e620002e136600462001700565b62000c40565b348015620002f457600080fd5b50620001d862000306366004620015c2565b62000dc4565b620001d86200031d366004620015dc565b6200101c565b3480156200033057600080fd5b506200011e6200034236600462001700565b600260209081526000928352604080842090915290825290205481565b3480156200036c57600080fd5b506200011e60035481565b620001d862000388366004620015c2565b62001354565b3480156200039b57600080fd5b50620003f9620003ad366004620015c2565b6001602081905260009182526040909120805491810154600282015460038301546004840154600585015460069095015493946001600160a01b03909316939192909160ff9091169087565b6040805197885260208801969096526001600160a01b03909416948601949094526060850191909152608084015290151560a083015260c082015260e00162000128565b620004896040518060e00160405280600081526020016000815260200160006001600160a01b031681526020016000815260200160008152602001600015158152602001600081525090565b6000828152600160205260408120549003620004c25760405162461bcd60e51b8152600401620004b99062001767565b60405180910390fd5b50600090815260016020818152604092839020835160e08101855281548152928101549183019190915260028101546001600160a01b0316928201929092526003820154606082015260048201546080820152600582015460ff16151560a082015260069091015460c082015290565b6004546001600160a01b031633146200055f5760405162461bcd60e51b8152600401620004b9906200179e565b600082815260016020526040812054839103620005905760405162461bcd60e51b8152600401620004b99062001767565b50600091825260016020819052604090922090910155565b6004546000906001600160a01b03163314620005d85760405162461bcd60e51b8152600401620004b9906200179e565b60008211620006395760405162461bcd60e51b815260206004820152602660248201527f546f74616c20736861726573206d7573742062652067726561746572207468616044820152656e207a65726f60d01b6064820152608401620004b9565b600083116200068b5760405162461bcd60e51b815260206004820152601f60248201527f56616c7565206d7573742062652067726561746572207468616e207a65726f006044820152606401620004b9565b600380549060006200069d83620017f5565b90915550506003546000620006b3848662001827565b90506000620006c28362001492565b604051602001620006d4919062001864565b60405160208183030381529060405290506000620006f28462001492565b604051602001620007049190620018a8565b6040516020818303038152906040529050600082828830886040516200072a90620015b4565b6200073a9594939291906200190c565b604051809103906000f08015801562000757573d6000803e3d6000fd5b5090506040518060e0016040528086815260200160008152602001826001600160a01b03168152602001888152602001600081526020016001151581526020018581525060016000878152602001908152602001600020600082015181600001556020820151816001015560408201518160020160006101000a8154816001600160a01b0302191690836001600160a01b03160217905550606082015181600301556080820151816004015560a08201518160050160006101000a81548160ff02191690831515021790555060c08201518160060155905050806001600160a01b0316857f4814f264b8b396b9d582267e8c96e3fc846301833a6f633fd1ed9406489eb3e7898760405162000876929190918252602082015260400190565b60405180910390a35092979650505050505050565b6000828152600160205260408120548190819085908203620008c15760405162461bcd60e51b8152600401620004b99062001767565b60008681526001602052604090819020600281015491516370a0823160e01b81526001600160a01b0388811660048301529192919091169081906370a0823190602401602060405180830381865afa15801562000922573d6000803e3d6000fd5b505050506040513d601f19601f820116820180604052508101906200094891906200195c565b95506000861180156200095f575060008260030154115b1562000987576003820154620009788761271062001976565b62000984919062001827565b94505b8515620009f45760008260030154836004015488620009a7919062001976565b620009b3919062001827565b60008a81526002602090815260408083206001600160a01b038d16845290915290205490915080821115620009f157620009ee818362001996565b95505b50505b5050509250925092565b60008381526001602052604081205484910362000a2f5760405162461bcd60e51b8152600401620004b99062001767565b600084815260016020526040902060050154849060ff1662000a655760405162461bcd60e51b8152600401620004b990620019ac565b6001600160a01b03841662000abd5760405162461bcd60e51b815260206004820152601f60248201527f43616e6e6f74207472616e7366657220746f207a65726f2061646472657373006044820152606401620004b9565b6000831162000b0f5760405162461bcd60e51b815260206004820181905260248201527f416d6f756e74206d7573742062652067726561746572207468616e207a65726f6044820152606401620004b9565b600085815260016020526040808220600281015491516323b872dd60e01b81523360048201526001600160a01b038881166024830152604482018890529193919092169182906323b872dd906064016020604051808303816000875af115801562000b7e573d6000803e3d6000fd5b505050506040513d601f19601f8201168201806040525081019062000ba49190620019e3565b90508062000be75760405162461bcd60e51b815260206004820152600f60248201526e151c985b9cd9995c8819985a5b1959608a1b6044820152606401620004b9565b866001600160a01b0316336001600160a01b0316897f78dc4ab325d618a4100f0b44da2f25725cd94b780060f6b9e87065e9c0b12ebd8960405162000c2e91815260200190565b60405180910390a45050505050505050565b6000828152600160205260408120548390820362000c725760405162461bcd60e51b8152600401620004b99062001767565b600084815260016020526040902060050154849060ff1662000ca85760405162461bcd60e51b8152600401620004b990620019ac565b600085815260016020526040808220600281015491516370a0823160e01b81526001600160a01b0388811660048301529193919092169182906370a0823190602401602060405180830381865afa15801562000d08573d6000803e3d6000fd5b505050506040513d601f19601f8201168201806040525081019062000d2e91906200195c565b90508060000362000d46576000955050505062000dbc565b6000836003015484600401548362000d5f919062001976565b62000d6b919062001827565b60008a81526002602090815260408083206001600160a01b038d16845290915290205490915080821162000da85760009750505050505062000dbc565b62000db4818362001996565b975050505050505b505092915050565b60008181526001602052604081205482910362000df55760405162461bcd60e51b8152600401620004b99062001767565b600082815260016020526040902060050154829060ff1662000e2b5760405162461bcd60e51b8152600401620004b990620019ac565b600083815260016020526040808220600281015491516370a0823160e01b815233600482015290926001600160a01b03909216919082906370a0823190602401602060405180830381865afa15801562000e89573d6000803e3d6000fd5b505050506040513d601f19601f8201168201806040525081019062000eaf91906200195c565b90506000811162000ef55760405162461bcd60e51b815260206004820152600f60248201526e139bc81cda185c995cc81bdddb9959608a1b6044820152606401620004b9565b6000836003015484600401548362000f0e919062001976565b62000f1a919062001827565b600088815260026020908152604080832033845290915290205490915080821162000f805760405162461bcd60e51b81526020600482015260156024820152744e6f206469766964656e647320746f20636c61696d60581b6044820152606401620004b9565b600062000f8e828462001996565b60008a8152600260209081526040808320338085529252808320879055519293509183156108fc0291849190818181858888f1935050505015801562000fd8573d6000803e3d6000fd5b5060405181815233908a907f6f7ca1e26318ba002eaad671db8b3dac8c655cb4998fe4f30e25c1506baf2403906020015b60405180910390a3505050505050505050565b6000828152600160205260408120548391036200104d5760405162461bcd60e51b8152600401620004b99062001767565b600083815260016020526040902060050154839060ff16620010835760405162461bcd60e51b8152600401620004b990620019ac565b60008311620010d55760405162461bcd60e51b815260206004820181905260248201527f416d6f756e74206d7573742062652067726561746572207468616e207a65726f6044820152606401620004b9565b60008481526001602052604081206002810154600682015491926001600160a01b03909116916200110890879062001976565b905080341015620011535760405162461bcd60e51b8152602060048201526014602482015273125b9cdd59999a58da595b9d081c185e5b595b9d60621b6044820152606401620004b9565b6040516370a0823160e01b81523060048201526000906001600160a01b038416906370a0823190602401602060405180830381865afa1580156200119b573d6000803e3d6000fd5b505050506040513d601f19601f82011682018060405250810190620011c191906200195c565b905086811015620012155760405162461bcd60e51b815260206004820152601b60248201527f4e6f7420656e6f7567682073686172657320617661696c61626c6500000000006044820152606401620004b9565b60405163a9059cbb60e01b8152336004820152602481018890526000906001600160a01b0385169063a9059cbb906044016020604051808303816000875af115801562001266573d6000803e3d6000fd5b505050506040513d601f19601f820116820180604052508101906200128c9190620019e3565b905080620012d55760405162461bcd60e51b815260206004820152601560248201527414da185c99481d1c985b9cd9995c8819985a5b1959605a1b6044820152606401620004b9565b823411156200131957336108fc620012ee853462001996565b6040518115909202916000818181858888f1935050505015801562001317573d6000803e3d6000fd5b505b604080518981526020810185905233918b917fce81571c08c76465bdf390ad1abe80af8c51c6c4566e3485f9395f13d5ad6328910162001009565b600081815260016020526040812054829103620013855760405162461bcd60e51b8152600401620004b99062001767565b600082815260016020526040902060050154829060ff16620013bb5760405162461bcd60e51b8152600401620004b990620019ac565b600034116200141b5760405162461bcd60e51b815260206004820152602560248201527f52656e7420616d6f756e74206d7573742062652067726561746572207468616e604482015264207a65726f60d81b6064820152608401620004b9565b6000838152600160205260408120600481018054919234926200144090849062001a0e565b9091555050600481015460405185917f5b0625389f5c45aec4711eade1592234cdddba345de2a262c6772ed87224cf55916200148491348252602082015260400190565b60405180910390a250505050565b606081600003620014ba5750506040805180820190915260018152600360fc1b602082015290565b8160005b8115620014ea5780620014d181620017f5565b9150620014e29050600a8362001827565b9150620014be565b60008167ffffffffffffffff811115620015085762001508620015ff565b6040519080825280601f01601f19166020018201604052801562001533576020820181803683370190505b5090505b8415620015ac57816200154a8162001a24565b92506200155b9050600a8662001a3e565b6200156890603062001a0e565b60f81b81838151811062001580576200158062001a55565b60200101906001600160f81b031916908160001a905350620015a4600a8662001827565b945062001537565b949350505050565b6110078062001a6c83390190565b600060208284031215620015d557600080fd5b5035919050565b60008060408385031215620015f057600080fd5b50508035926020909101359150565b634e487b7160e01b600052604160045260246000fd5b6000806000606084860312156200162b57600080fd5b833567ffffffffffffffff808211156200164457600080fd5b818601915086601f8301126200165957600080fd5b8135818111156200166e576200166e620015ff565b604051601f8201601f19908116603f01168101908382118183101715620016995762001699620015ff565b81604052828152896020848701011115620016b357600080fd5b82602086016020830137600060208483010152809750505050505060208401359150604084013590509250925092565b80356001600160a01b0381168114620016fb57600080fd5b919050565b600080604083850312156200171457600080fd5b823591506200172660208401620016e3565b90509250929050565b6000806000606084860312156200174557600080fd5b833592506200175760208501620016e3565b9150604084013590509250925092565b60208082526017908201527f50726f706572747920646f6573206e6f74206578697374000000000000000000604082015260600190565b60208082526021908201527f4f6e6c79206f776e65722063616e2063616c6c20746869732066756e6374696f6040820152603760f91b606082015260800190565b634e487b7160e01b600052601160045260246000fd5b6000600182016200180a576200180a620017df565b5060010190565b634e487b7160e01b600052601260045260246000fd5b60008262001839576200183962001811565b500490565b60005b838110156200185b57818101518382015260200162001841565b50506000910152565b680283937b832b93a3c960bd1b8152600082516200188a8160098501602087016200183e565b662053686172657360c81b6009939091019283015250601001919050565b600560fc1b815260008251620018c68160018501602087016200183e565b605360f81b6001939091019283015250600201919050565b60008151808452620018f88160208601602086016200183e565b601f01601f19169290920160200192915050565b60a0815260006200192160a0830188620018de565b8281036020840152620019358188620018de565b604084019690965250506001600160a01b0392909216606083015260809091015292915050565b6000602082840312156200196f57600080fd5b5051919050565b8082028115828204841417620019905762001990620017df565b92915050565b81810381811115620019905762001990620017df565b6020808252601b908201527f50726f7065727479206e6f74206672616374696f6e616c697a65640000000000604082015260600190565b600060208284031215620019f657600080fd5b8151801515811462001a0757600080fd5b9392505050565b80820180821115620019905762001990620017df565b60008162001a365762001a36620017df565b506000190190565b60008262001a505762001a5062001811565b500690565b634e487b7160e01b600052603260045260246000fdfe60e06040523480156200001157600080fd5b50604051620010073803806200100783398101604081905262000034916200035f565b848460036200004483826200048f565b5060046200005382826200048f565b50505060008311620000ac5760405162461bcd60e51b815260206004820181905260248201527f536861726573206d7573742062652067726561746572207468616e207a65726f60448201526064015b60405180910390fd5b6001600160a01b038216620001045760405162461bcd60e51b815260206004820152601c60248201527f4f776e65722063616e6e6f74206265207a65726f2061646472657373000000006044820152606401620000a3565b3360805260a081905260c08390526200011e828462000129565b505050505062000583565b6001600160a01b038216620001555760405163ec442f0560e01b815260006004820152602401620000a3565b620001636000838362000167565b5050565b6001600160a01b038316620001965780600260008282546200018a91906200055b565b909155506200020a9050565b6001600160a01b03831660009081526020819052604090205481811015620001eb5760405163391434e360e21b81526001600160a01b03851660048201526024810182905260448101839052606401620000a3565b6001600160a01b03841660009081526020819052604090209082900390555b6001600160a01b038216620002285760028054829003905562000247565b6001600160a01b03821660009081526020819052604090208054820190555b816001600160a01b0316836001600160a01b03167fddf252ad1be2c89b69c2b068fc378daa952ba7f163c4a11628f55a4df523b3ef836040516200028d91815260200190565b60405180910390a3505050565b634e487b7160e01b600052604160045260246000fd5b600082601f830112620002c257600080fd5b81516001600160401b0380821115620002df57620002df6200029a565b604051601f8301601f19908116603f011681019082821181831017156200030a576200030a6200029a565b816040528381526020925086838588010111156200032757600080fd5b600091505b838210156200034b57858201830151818301840152908201906200032c565b600093810190920192909252949350505050565b600080600080600060a086880312156200037857600080fd5b85516001600160401b03808211156200039057600080fd5b6200039e89838a01620002b0565b96506020880151915080821115620003b557600080fd5b50620003c488828901620002b0565b60408801516060890151919650945090506001600160a01b0381168114620003eb57600080fd5b80925050608086015190509295509295909350565b600181811c908216806200041557607f821691505b6020821081036200043657634e487b7160e01b600052602260045260246000fd5b50919050565b601f8211156200048a57600081815260208120601f850160051c81016020861015620004655750805b601f850160051c820191505b81811015620004865782815560010162000471565b5050505b505050565b81516001600160401b03811115620004ab57620004ab6200029a565b620004c381620004bc845462000400565b846200043c565b602080601f831160018114620004fb5760008415620004e25750858301515b600019600386901b1c1916600185901b17855562000486565b600085815260208120601f198616915b828110156200052c578886015182559484019460019091019084016200050b565b50858210156200054b5787850151600019600388901b60f8161c191681555b5050505050600190811b01905550565b808201808211156200057d57634e487b7160e01b600052601160045260246000fd5b92915050565b60805160a05160c051610a32620005d5600039600081816101a40152818161042f01526104600152600081816102990152818161039301526104c701526000818160f401526101f90152610a326000f3fe608060405234801561001057600080fd5b50600436106100ea5760003560e01c806370a082311161008c578063a2931fe811610066578063a2931fe814610235578063a9059cbb14610248578063dd62ed3e1461025b578063ee7a3b8e1461029457600080fd5b806370a08231146101c6578063817bc0cb146101ef57806395d89b411461022d57600080fd5b806318160ddd116100c857806318160ddd1461016b57806323b872dd1461017d578063313ce567146101905780633a98ef391461019f57600080fd5b806306d6549c146100ef57806306fdde0314610133578063095ea7b314610148575b600080fd5b6101167f000000000000000000000000000000000000000000000000000000000000000081565b6040516001600160a01b0390911681526020015b60405180910390f35b61013b6102bb565b60405161012a9190610842565b61015b6101563660046108ac565b61034d565b604051901515815260200161012a565b6002545b60405190815260200161012a565b61015b61018b3660046108d6565b610367565b6040516012815260200161012a565b61016f7f000000000000000000000000000000000000000000000000000000000000000081565b61016f6101d4366004610912565b6001600160a01b031660009081526020819052604090205490565b6001600160a01b037f00000000000000000000000000000000000000000000000000000000000000001660009081526020819052604090205461016f565b61013b6103f4565b61016f610243366004610912565b610403565b61015b6102563660046108ac565b61049c565b61016f61026936600461092d565b6001600160a01b03918216600090815260016020908152604080832093909416825291909152205490565b61016f7f000000000000000000000000000000000000000000000000000000000000000081565b6060600380546102ca90610960565b80601f01602080910402602001604051908101604052809291908181526020018280546102f690610960565b80156103435780601f1061031857610100808354040283529160200191610343565b820191906000526020600020905b81548152906001019060200180831161032657829003601f168201915b5050505050905090565b60003361035b818585610526565b60019150505b92915050565b600080610375858585610538565b905080156103ec57836001600160a01b0316856001600160a01b03167f00000000000000000000000000000000000000000000000000000000000000007f78dc4ab325d618a4100f0b44da2f25725cd94b780060f6b9e87065e9c0b12ebd866040516103e391815260200190565b60405180910390a45b949350505050565b6060600480546102ca90610960565b6001600160a01b0381166000908152602081905260408120548060000361042d5750600092915050565b7f000000000000000000000000000000000000000000000000000000000000000060000361045e5750600092915050565b7f000000000000000000000000000000000000000000000000000000000000000061048b826127106109b0565b61049591906109c7565b9392505050565b6000806104a9848461055c565b9050801561049557836001600160a01b0316336001600160a01b03167f00000000000000000000000000000000000000000000000000000000000000007f78dc4ab325d618a4100f0b44da2f25725cd94b780060f6b9e87065e9c0b12ebd8660405161051791815260200190565b60405180910390a49392505050565b610533838383600161056a565b505050565b600033610546858285610645565b6105518585856106be565b506001949350505050565b60003361035b8185856106be565b6001600160a01b0384166105995760405163e602df0560e01b8152600060048201526024015b60405180910390fd5b6001600160a01b0383166105c357604051634a1406b160e11b815260006004820152602401610590565b6001600160a01b038085166000908152600160209081526040808320938716835292905220829055801561063f57826001600160a01b0316846001600160a01b03167f8c5be1e5ebec7d5bd14f71427d1e84f3dd0314c0f7b2291e5b200ac8c7c3b9258460405161063691815260200190565b60405180910390a35b50505050565b6001600160a01b0383811660009081526001602090815260408083209386168352929052205460001981101561063f57818110156106af57604051637dc7a0d960e11b81526001600160a01b03841660048201526024810182905260448101839052606401610590565b61063f8484848403600061056a565b6001600160a01b0383166106e857604051634b637e8f60e11b815260006004820152602401610590565b6001600160a01b0382166107125760405163ec442f0560e01b815260006004820152602401610590565b6105338383836001600160a01b03831661074357806002600082825461073891906109e9565b909155506107b59050565b6001600160a01b038316600090815260208190526040902054818110156107965760405163391434e360e21b81526001600160a01b03851660048201526024810182905260448101839052606401610590565b6001600160a01b03841660009081526020819052604090209082900390555b6001600160a01b0382166107d1576002805482900390556107f0565b6001600160a01b03821660009081526020819052604090208054820190555b816001600160a01b0316836001600160a01b03167fddf252ad1be2c89b69c2b068fc378daa952ba7f163c4a11628f55a4df523b3ef8360405161083591815260200190565b60405180910390a3505050565b600060208083528351808285015260005b8181101561086f57858101830151858201604001528201610853565b506000604082860101526040601f19601f8301168501019250505092915050565b80356001600160a01b03811681146108a757600080fd5b919050565b600080604083850312156108bf57600080fd5b6108c883610890565b946020939093013593505050565b6000806000606084860312156108eb57600080fd5b6108f484610890565b925061090260208501610890565b9150604084013590509250925092565b60006020828403121561092457600080fd5b61049582610890565b6000806040838503121561094057600080fd5b61094983610890565b915061095760208401610890565b90509250929050565b600181811c9082168061097457607f821691505b60208210810361099457634e487b7160e01b600052602260045260246000fd5b50919050565b634e487b7160e01b600052601160045260246000fd5b80820281158282048414176103615761036161099a565b6000826109e457634e487b7160e01b600052601260045260246000fd5b500490565b808201808211156103615761036161099a56fea264697066735822122002d7cdeb1dbdf6d6a258b9721e8f08f949ca6d0ebd00d2c573172dd7ff8b8ec964736f6c63430008140033a26469706673582212207b45260f3ed3dda84559c9f115b2a24327dc329ace16caeb3680536b73ab166864736f6c63430008140033","opcodes":"PUSH1 0x80 PUSH1 0x40 MSTORE CALLVALUE DUP1 ISZERO PUSH2 0x10 JUMPI PUSH1 0x0 DUP1 REVERT JUMPDEST POP PUSH1 0x40 MLOAD PUSH2 0x2BA2 CODESIZE SUB DUP1 PUSH2 0x2BA2 DUP4 CODECOPY DUP2 ADD PUSH1 0x40 DUP2 SWAP1 MSTORE PUSH2 0x2F SWAP2 PUSH2 0xBB JUMP JUMPDEST PUSH1 0x1 PUSH1 0x1 PUSH1 0xA0 SHL SUB DUP2 AND PUSH2 0x89 JUMPI PUSH1 0x40 MLOAD PUSH3 0x461BCD PUSH1 0xE5 SHL DUP2 MSTORE PUSH1 0x20 PUSH1 0x4 DUP3 ADD MSTORE PUSH1 0x1B PUSH1 0x24 DUP3 ADD MSTORE PUSH32 0x496E76616C69642050726F70657274794E465420616464726573730000000000 PUSH1 0x44 DUP3 ADD MSTORE PUSH1 0x64 ADD PUSH1 0x40 MLOAD DUP1 SWAP2 SUB SWAP1 REVERT JUMPDEST PUSH1 0x0 DUP1 SLOAD PUSH1 0x1 PUSH1 0x1 PUSH1 0xA0 SHL SUB SWAP1 SWAP3 AND PUSH1 0x1 PUSH1 0x1 PUSH1 0xA0 SHL SUB NOT SWAP3 DUP4 AND OR DUP2 SSTORE PUSH1 0x4 DUP1 SLOAD SWAP1 SWAP3 AND CALLER OR SWAP1 SWAP2 SSTORE PUSH1 0x3 SSTORE PUSH2 0xEB JUMP JUMPDEST PUSH1 0x0 PUSH1 0x20 DUP3 DUP5 SUB SLT ISZERO PUSH2 0xCD JUMPI PUSH1 0x0 DUP1 REVERT JUMPDEST DUP2 MLOAD PUSH1 0x1 PUSH1 0x1 PUSH1 0xA0 SHL SUB DUP2 AND DUP2 EQ PUSH2 0xE4 JUMPI PUSH1 0x0 DUP1 REVERT JUMPDEST SWAP4 SWAP3 POP POP POP JUMP JUMPDEST PUSH2 0x2AA8 DUP1 PUSH2 0xFA PUSH1 0x0 CODECOPY PUSH1 0x0 RETURN INVALID PUSH1 0x80 PUSH1 0x40 MSTORE PUSH1 0x4 CALLDATASIZE LT PUSH3 0xFF JUMPI PUSH1 0x0 CALLDATALOAD PUSH1 0xE0 SHR DUP1 PUSH4 0x8DA5CB5B GT PUSH3 0x95 JUMPI DUP1 PUSH4 0xCFF63567 GT PUSH3 0x60 JUMPI DUP1 PUSH4 0xCFF63567 EQ PUSH3 0x323 JUMPI DUP1 PUSH4 0xD090E47E EQ PUSH3 0x35F JUMPI DUP1 PUSH4 0xF6E96CED EQ PUSH3 0x377 JUMPI DUP1 PUSH4 0xF7B10808 EQ PUSH3 0x38E JUMPI PUSH1 0x0 DUP1 REVERT JUMPDEST DUP1 PUSH4 0x8DA5CB5B EQ PUSH3 0x2A0 JUMPI DUP1 PUSH4 0xB45EBEE3 EQ PUSH3 0x2C2 JUMPI DUP1 PUSH4 0xBD7047C4 EQ PUSH3 0x2E7 JUMPI DUP1 PUSH4 0xBEEBC5DA EQ PUSH3 0x30C JUMPI PUSH1 0x0 DUP1 REVERT JUMPDEST DUP1 PUSH4 0x37F76838 GT PUSH3 0xD6 JUMPI DUP1 PUSH4 0x37F76838 EQ PUSH3 0x1DA JUMPI DUP1 PUSH4 0x3D7F8EE6 EQ PUSH3 0x215 JUMPI DUP1 PUSH4 0x6EA456AC EQ PUSH3 0x23A JUMPI DUP1 PUSH4 0x84B9A6E6 EQ PUSH3 0x27B JUMPI PUSH1 0x0 DUP1 REVERT JUMPDEST DUP1 PUSH4 0x17AAF5ED EQ PUSH3 0x10C JUMPI DUP1 PUSH4 0x32665FFB EQ PUSH3 0x131 JUMPI DUP1 PUSH4 0x335756BB EQ PUSH3 0x1B3 JUMPI PUSH1 0x0 DUP1 REVERT JUMPDEST CALLDATASIZE PUSH3 0x107 JUMPI STOP JUMPDEST PUSH1 0x0 DUP1 REVERT JUMPDEST CALLVALUE DUP1 ISZERO PUSH3 0x119 JUMPI PUSH1 0x0 DUP1 REVERT JUMPDEST POP PUSH1 0x3 SLOAD JUMPDEST PUSH1 0x40 MLOAD SWAP1 DUP2 MSTORE PUSH1 0x20 ADD JUMPDEST PUSH1 0x40 MLOAD DUP1 SWAP2 SUB SWAP1 RETURN JUMPDEST CALLVALUE DUP1 ISZERO PUSH3 0x13E JUMPI PUSH1 0x0 DUP1 REVERT JUMPDEST POP PUSH3 0x156 PUSH3 0x150 CALLDATASIZE PUSH1 0x4 PUSH3 0x15C2 JUMP JUMPDEST PUSH3 0x43D JUMP JUMPDEST PUSH1 0x40 MLOAD PUSH3 0x128 SWAP2 SWAP1 DUP2 MLOAD DUP2 MSTORE PUSH1 0x20 DUP1 DUP4 ADD MLOAD SWAP1 DUP3 ADD MSTORE PUSH1 0x40 DUP1 DUP4 ADD MLOAD PUSH1 0x1 PUSH1 0x1 PUSH1 0xA0 SHL SUB AND SWAP1 DUP3 ADD MSTORE PUSH1 0x60 DUP1 DUP4 ADD MLOAD SWAP1 DUP3 ADD MSTORE PUSH1 0x80 DUP1 DUP4 ADD MLOAD SWAP1 DUP3 ADD MSTORE PUSH1 0xA0 DUP1 DUP4 ADD MLOAD ISZERO ISZERO SWAP1 DUP3 ADD MSTORE PUSH1 0xC0 SWAP2 DUP3 ADD MLOAD SWAP2 DUP2 ADD SWAP2 SWAP1 SWAP2 MSTORE PUSH1 0xE0 ADD SWAP1 JUMP JUMPDEST CALLVALUE DUP1 ISZERO PUSH3 0x1C0 JUMPI PUSH1 0x0 DUP1 REVERT JUMPDEST POP PUSH3 0x1D8 PUSH3 0x1D2 CALLDATASIZE PUSH1 0x4 PUSH3 0x15DC JUMP JUMPDEST PUSH3 0x532 JUMP JUMPDEST STOP JUMPDEST CALLVALUE DUP1 ISZERO PUSH3 0x1E7 JUMPI PUSH1 0x0 DUP1 REVERT JUMPDEST POP PUSH1 0x0 SLOAD PUSH3 0x1FC SWAP1 PUSH1 0x1 PUSH1 0x1 PUSH1 0xA0 SHL SUB AND DUP2 JUMP JUMPDEST PUSH1 0x40 MLOAD PUSH1 0x1 PUSH1 0x1 PUSH1 0xA0 SHL SUB SWAP1 SWAP2 AND DUP2 MSTORE PUSH1 0x20 ADD PUSH3 0x128 JUMP JUMPDEST CALLVALUE DUP1 ISZERO PUSH3 0x222 JUMPI PUSH1 0x0 DUP1 REVERT JUMPDEST POP PUSH3 0x11E PUSH3 0x234 CALLDATASIZE PUSH1 0x4 PUSH3 0x1615 JUMP JUMPDEST PUSH3 0x5A8 JUMP JUMPDEST CALLVALUE DUP1 ISZERO PUSH3 0x247 JUMPI PUSH1 0x0 DUP1 REVERT JUMPDEST POP PUSH3 0x25F PUSH3 0x259 CALLDATASIZE PUSH1 0x4 PUSH3 0x1700 JUMP JUMPDEST PUSH3 0x88B JUMP JUMPDEST PUSH1 0x40 DUP1 MLOAD SWAP4 DUP5 MSTORE PUSH1 0x20 DUP5 ADD SWAP3 SWAP1 SWAP3 MSTORE SWAP1 DUP3 ADD MSTORE PUSH1 0x60 ADD PUSH3 0x128 JUMP JUMPDEST CALLVALUE DUP1 ISZERO PUSH3 0x288 JUMPI PUSH1 0x0 DUP1 REVERT JUMPDEST POP PUSH3 0x1D8 PUSH3 0x29A CALLDATASIZE PUSH1 0x4 PUSH3 0x172F JUMP JUMPDEST PUSH3 0x9FE JUMP JUMPDEST CALLVALUE DUP1 ISZERO PUSH3 0x2AD JUMPI PUSH1 0x0 DUP1 REVERT JUMPDEST POP PUSH1 0x4 SLOAD PUSH3 0x1FC SWAP1 PUSH1 0x1 PUSH1 0x1 PUSH1 0xA0 SHL SUB AND DUP2 JUMP JUMPDEST CALLVALUE DUP1 ISZERO PUSH3 0x2CF JUMPI PUSH1 0x0 DUP1 REVERT JUMPDEST POP PUSH3 0x11E PUSH3 0x2E1 CALLDATASIZE PUSH1 0x4 PUSH3 0x1700 JUMP JUMPDEST PUSH3 0xC40 JUMP JUMPDEST CALLVALUE DUP1 ISZERO PUSH3 0x2F4 JUMPI PUSH1 0x0 DUP1 REVERT JUMPDEST POP PUSH3 0x1D8 PUSH3 0x306 CALLDATASIZE PUSH1 0x4 PUSH3 0x15C2 JUMP JUMPDEST PUSH3 0xDC4 JUMP JUMPDEST PUSH3 0x1D8 PUSH3 0x31D CALLDATASIZE PUSH1 0x4 PUSH3 0x15DC JUMP JUMPDEST PUSH3 0x101C JUMP JUMPDEST CALLVALUE DUP1 ISZERO PUSH3 0x330 JUMPI PUSH1 0x0 DUP1 REVERT JUMPDEST POP PUSH3 0x11E PUSH3 0x342 CALLDATASIZE PUSH1 0x4 PUSH3 0x1700 JUMP JUMPDEST PUSH1 0x2 PUSH1 0x20 SWAP1 DUP2 MSTORE PUSH1 0x0 SWAP3 DUP4 MSTORE PUSH1 0x40 DUP1 DUP5 KECCAK256 SWAP1 SWAP2 MSTORE SWAP1 DUP3 MSTORE SWAP1 KECCAK256 SLOAD DUP2 JUMP JUMPDEST CALLVALUE DUP1 ISZERO PUSH3 0x36C JUMPI PUSH1 0x0 DUP1 REVERT JUMPDEST POP PUSH3 0x11E PUSH1 0x3 SLOAD DUP2 JUMP JUMPDEST PUSH3 0x1D8 PUSH3 0x388 CALLDATASIZE PUSH1 0x4 PUSH3 0x15C2 JUMP JUMPDEST PUSH3 0x1354 JUMP JUMPDEST CALLVALUE DUP1 ISZERO PUSH3 0x39B JUMPI PUSH1 0x0 DUP1 REVERT JUMPDEST POP PUSH3 0x3F9 PUSH3 0x3AD CALLDATASIZE PUSH1 0x4 PUSH3 0x15C2 JUMP JUMPDEST PUSH1 0x1 PUSH1 0x20 DUP2 SWAP1 MSTORE PUSH1 0x0 SWAP2 DUP3 MSTORE PUSH1 0x40 SWAP1 SWAP2 KECCAK256 DUP1 SLOAD SWAP2 DUP2 ADD SLOAD PUSH1 0x2 DUP3 ADD SLOAD PUSH1 0x3 DUP4 ADD SLOAD PUSH1 0x4 DUP5 ADD SLOAD PUSH1 0x5 DUP6 ADD SLOAD PUSH1 0x6 SWAP1 SWAP6 ADD SLOAD SWAP4 SWAP5 PUSH1 0x1 PUSH1 0x1 PUSH1 0xA0 SHL SUB SWAP1 SWAP4 AND SWAP4 SWAP2 SWAP3 SWAP1 SWAP2 PUSH1 0xFF SWAP1 SWAP2 AND SWAP1 DUP8 JUMP JUMPDEST PUSH1 0x40 DUP1 MLOAD SWAP8 DUP9 MSTORE PUSH1 0x20 DUP9 ADD SWAP7 SWAP1 SWAP7 MSTORE PUSH1 0x1 PUSH1 0x1 PUSH1 0xA0 SHL SUB SWAP1 SWAP5 AND SWAP5 DUP7 ADD SWAP5 SWAP1 SWAP5 MSTORE PUSH1 0x60 DUP6 ADD SWAP2 SWAP1 SWAP2 MSTORE PUSH1 0x80 DUP5 ADD MSTORE SWAP1 ISZERO ISZERO PUSH1 0xA0 DUP4 ADD MSTORE PUSH1 0xC0 DUP3 ADD MSTORE PUSH1 0xE0 ADD PUSH3 0x128 JUMP JUMPDEST PUSH3 0x489 PUSH1 0x40 MLOAD DUP1 PUSH1 0xE0 ADD PUSH1 0x40 MSTORE DUP1 PUSH1 0x0 DUP2 MSTORE PUSH1 0x20 ADD PUSH1 0x0 DUP2 MSTORE PUSH1 0x20 ADD PUSH1 0x0 PUSH1 0x1 PUSH1 0x1 PUSH1 0xA0 SHL SUB AND DUP2 MSTORE PUSH1 0x20 ADD PUSH1 0x0 DUP2 MSTORE PUSH1 0x20 ADD PUSH1 0x0 DUP2 MSTORE PUSH1 0x20 ADD PUSH1 0x0 ISZERO ISZERO DUP2 MSTORE PUSH1 0x20 ADD PUSH1 0x0 DUP2 MSTORE POP SWAP1 JUMP JUMPDEST PUSH1 0x0 DUP3 DUP2 MSTORE PUSH1 0x1 PUSH1 0x20 MSTORE PUSH1 0x40 DUP2 KECCAK256 SLOAD SWAP1 SUB PUSH3 0x4C2 JUMPI PUSH1 0x40 MLOAD PUSH3 0x461BCD PUSH1 0xE5 SHL DUP2 MSTORE PUSH1 0x4 ADD PUSH3 0x4B9 SWAP1 PUSH3 0x1767 JUMP JUMPDEST PUSH1 0x40 MLOAD DUP1 SWAP2 SUB SWAP1 REVERT JUMPDEST POP PUSH1 0x0 SWAP1 DUP2 MSTORE PUSH1 0x1 PUSH1 0x20 DUP2 DUP2 MSTORE PUSH1 0x40 SWAP3 DUP4 SWAP1 KECCAK256 DUP4 MLOAD PUSH1 0xE0 DUP2 ADD DUP6 MSTORE DUP2 SLOAD DUP2 MSTORE SWAP3 DUP2 ADD SLOAD SWAP2 DUP4 ADD SWAP2 SWAP1 SWAP2 MSTORE PUSH1 0x2 DUP2 ADD SLOAD PUSH1 0x1 PUSH1 0x1 PUSH1 0xA0 SHL SUB AND SWAP3 DUP3 ADD SWAP3 SWAP1 SWAP3 MSTORE PUSH1 0x3 DUP3 ADD SLOAD PUSH1 0x60 DUP3 ADD MSTORE PUSH1 0x4 DUP3 ADD SLOAD PUSH1 0x80 DUP3 ADD MSTORE PUSH1 0x5 DUP3 ADD SLOAD PUSH1 0xFF AND ISZERO ISZERO PUSH1 0xA0 DUP3 ADD MSTORE PUSH1 0x6 SWAP1 SWAP2 ADD SLOAD PUSH1 0xC0 DUP3 ADD MSTORE SWAP1 JUMP JUMPDEST PUSH1 0x4 SLOAD PUSH1 0x1 PUSH1 0x1 PUSH1 0xA0 SHL SUB AND CALLER EQ PUSH3 0x55F JUMPI PUSH1 0x40 MLOAD PUSH3 0x461BCD PUSH1 0xE5 SHL DUP2 MSTORE PUSH1 0x4 ADD PUSH3 0x4B9 SWAP1 PUSH3 0x179E JUMP JUMPDEST PUSH1 0x0 DUP3 DUP2 MSTORE PUSH1 0x1 PUSH1 0x20 MSTORE PUSH1 0x40 DUP2 KECCAK256 SLOAD DUP4 SWAP2 SUB PUSH3 0x590 JUMPI PUSH1 0x40 MLOAD PUSH3 0x461BCD PUSH1 0xE5 SHL DUP2 MSTORE PUSH1 0x4 ADD PUSH3 0x4B9 SWAP1 PUSH3 0x1767 JUMP JUMPDEST POP PUSH1 0x0 SWAP2 DUP3 MSTORE PUSH1 0x1 PUSH1 0x20 DUP2 SWAP1 MSTORE PUSH1 0x40 SWAP1 SWAP3 KECCAK256 SWAP1 SWAP2 ADD SSTORE JUMP JUMPDEST PUSH1 0x4 SLOAD PUSH1 0x0 SWAP1 PUSH1 0x1 PUSH1 0x1 PUSH1 0xA0 SHL SUB AND CALLER EQ PUSH3 0x5D8 JUMPI PUSH1 0x40 MLOAD PUSH3 0x461BCD PUSH1 0xE5 SHL DUP2 MSTORE PUSH1 0x4 ADD PUSH3 0x4B9 SWAP1 PUSH3 0x179E JUMP JUMPDEST PUSH1 0x0 DUP3 GT PUSH3 0x639 JUMPI PUSH1 0x40 MLOAD PUSH3 0x461BCD PUSH1 0xE5 SHL DUP2 MSTORE PUSH1 0x20 PUSH1 0x4 DUP3 ADD MSTORE PUSH1 0x26 PUSH1 0x24 DUP3 ADD MSTORE PUSH32 0x546F74616C20736861726573206D757374206265206772656174657220746861 PUSH1 0x44 DUP3 ADD MSTORE PUSH6 0x6E207A65726F PUSH1 0xD0 SHL PUSH1 0x64 DUP3 ADD MSTORE PUSH1 0x84 ADD PUSH3 0x4B9 JUMP JUMPDEST PUSH1 0x0 DUP4 GT PUSH3 0x68B JUMPI PUSH1 0x40 MLOAD PUSH3 0x461BCD PUSH1 0xE5 SHL DUP2 MSTORE PUSH1 0x20 PUSH1 0x4 DUP3 ADD MSTORE PUSH1 0x1F PUSH1 0x24 DUP3 ADD MSTORE PUSH32 0x56616C7565206D7573742062652067726561746572207468616E207A65726F00 PUSH1 0x44 DUP3 ADD MSTORE PUSH1 0x64 ADD PUSH3 0x4B9 JUMP JUMPDEST PUSH1 0x3 DUP1 SLOAD SWAP1 PUSH1 0x0 PUSH3 0x69D DUP4 PUSH3 0x17F5 JUMP JUMPDEST SWAP1 SWAP2 SSTORE POP POP PUSH1 0x3 SLOAD PUSH1 0x0 PUSH3 0x6B3 DUP5 DUP7 PUSH3 0x1827 JUMP JUMPDEST SWAP1 POP PUSH1 0x0 PUSH3 0x6C2 DUP4 PUSH3 0x1492 JUMP JUMPDEST PUSH1 0x40 MLOAD PUSH1 0x20 ADD PUSH3 0x6D4 SWAP2 SWAP1 PUSH3 0x1864 JUMP JUMPDEST PUSH1 0x40 MLOAD PUSH1 0x20 DUP2 DUP4 SUB SUB DUP2 MSTORE SWAP1 PUSH1 0x40 MSTORE SWAP1 POP PUSH1 0x0 PUSH3 0x6F2 DUP5 PUSH3 0x1492 JUMP JUMPDEST PUSH1 0x40 MLOAD PUSH1 0x20 ADD PUSH3 0x704 SWAP2 SWAP1 PUSH3 0x18A8 JUMP JUMPDEST PUSH1 0x40 MLOAD PUSH1 0x20 DUP2 DUP4 SUB SUB DUP2 MSTORE SWAP1 PUSH1 0x40 MSTORE SWAP1 POP PUSH1 0x0 DUP3 DUP3 DUP9 ADDRESS DUP9 PUSH1 0x40 MLOAD PUSH3 0x72A SWAP1 PUSH3 0x15B4 JUMP JUMPDEST PUSH3 0x73A SWAP6 SWAP5 SWAP4 SWAP3 SWAP2 SWAP1 PUSH3 0x190C JUMP JUMPDEST PUSH1 0x40 MLOAD DUP1 SWAP2 SUB SWAP1 PUSH1 0x0 CREATE DUP1 ISZERO DUP1 ISZERO PUSH3 0x757 JUMPI RETURNDATASIZE PUSH1 0x0 DUP1 RETURNDATACOPY RETURNDATASIZE PUSH1 0x0 REVERT JUMPDEST POP SWAP1 POP PUSH1 0x40 MLOAD DUP1 PUSH1 0xE0 ADD PUSH1 0x40 MSTORE DUP1 DUP7 DUP2 MSTORE PUSH1 0x20 ADD PUSH1 0x0 DUP2 MSTORE PUSH1 0x20 ADD DUP3 PUSH1 0x1 PUSH1 0x1 PUSH1 0xA0 SHL SUB AND DUP2 MSTORE PUSH1 0x20 ADD DUP9 DUP2 MSTORE PUSH1 0x20 ADD PUSH1 0x0 DUP2 MSTORE PUSH1 0x20 ADD PUSH1 0x1 ISZERO ISZERO DUP2 MSTORE PUSH1 0x20 ADD DUP6 DUP2 MSTORE POP PUSH1 0x1 PUSH1 0x0 DUP8 DUP2 MSTORE PUSH1 0x20 ADD SWAP1 DUP2 MSTORE PUSH1 0x20 ADD PUSH1 0x0 KECCAK256 PUSH1 0x0 DUP3 ADD MLOAD DUP2 PUSH1 0x0 ADD SSTORE PUSH1 0x20 DUP3 ADD MLOAD DUP2 PUSH1 0x1 ADD SSTORE PUSH1 0x40 DUP3 ADD MLOAD DUP2 PUSH1 0x2 ADD PUSH1 0x0 PUSH2 0x100 EXP DUP2 SLOAD DUP2 PUSH1 0x1 PUSH1 0x1 PUSH1 0xA0 SHL SUB MUL NOT AND SWAP1 DUP4 PUSH1 0x1 PUSH1 0x1 PUSH1 0xA0 SHL SUB AND MUL OR SWAP1 SSTORE POP PUSH1 0x60 DUP3 ADD MLOAD DUP2 PUSH1 0x3 ADD SSTORE PUSH1 0x80 DUP3 ADD MLOAD DUP2 PUSH1 0x4 ADD SSTORE PUSH1 0xA0 DUP3 ADD MLOAD DUP2 PUSH1 0x5 ADD PUSH1 0x0 PUSH2 0x100 EXP DUP2 SLOAD DUP2 PUSH1 0xFF MUL NOT AND SWAP1 DUP4 ISZERO ISZERO MUL OR SWAP1 SSTORE POP PUSH1 0xC0 DUP3 ADD MLOAD DUP2 PUSH1 0x6 ADD SSTORE SWAP1 POP POP DUP1 PUSH1 0x1 PUSH1 0x1 PUSH1 0xA0 SHL SUB AND DUP6 PUSH32 0x4814F264B8B396B9D582267E8C96E3FC846301833A6F633FD1ED9406489EB3E7 DUP10 DUP8 PUSH1 0x40 MLOAD PUSH3 0x876 SWAP3 SWAP2 SWAP1 SWAP2 DUP3 MSTORE PUSH1 0x20 DUP3 ADD MSTORE PUSH1 0x40 ADD SWAP1 JUMP JUMPDEST PUSH1 0x40 MLOAD DUP1 SWAP2 SUB SWAP1 LOG3 POP SWAP3 SWAP8 SWAP7 POP POP POP POP POP POP POP JUMP JUMPDEST PUSH1 0x0 DUP3 DUP2 MSTORE PUSH1 0x1 PUSH1 0x20 MSTORE PUSH1 0x40 DUP2 KECCAK256 SLOAD DUP2 SWAP1 DUP2 SWAP1 DUP6 SWAP1 DUP3 SUB PUSH3 0x8C1 JUMPI PUSH1 0x40 MLOAD PUSH3 0x461BCD PUSH1 0xE5 SHL DUP2 MSTORE PUSH1 0x4 ADD PUSH3 0x4B9 SWAP1 PUSH3 0x1767 JUMP JUMPDEST PUSH1 0x0 DUP7 DUP2 MSTORE PUSH1 0x1 PUSH1 0x20 MSTORE PUSH1 0x40 SWAP1 DUP2 SWAP1 KECCAK256 PUSH1 0x2 DUP2 ADD SLOAD SWAP2 MLOAD PUSH4 0x70A08231 PUSH1 0xE0 SHL DUP2 MSTORE PUSH1 0x1 PUSH1 0x1 PUSH1 0xA0 SHL SUB DUP9 DUP2 AND PUSH1 0x4 DUP4 ADD MSTORE SWAP2 SWAP3 SWAP2 SWAP1 SWAP2 AND SWAP1 DUP2 SWAP1 PUSH4 0x70A08231 SWAP1 PUSH1 0x24 ADD PUSH1 0x20 PUSH1 0x40 MLOAD DUP1 DUP4 SUB DUP2 DUP7 GAS STATICCALL ISZERO DUP1 ISZERO PUSH3 0x922 JUMPI RETURNDATASIZE PUSH1 0x0 DUP1 RETURNDATACOPY RETURNDATASIZE PUSH1 0x0 REVERT JUMPDEST POP POP POP POP PUSH1 0x40 MLOAD RETURNDATASIZE PUSH1 0x1F NOT PUSH1 0x1F DUP3 ADD AND DUP3 ADD DUP1 PUSH1 0x40 MSTORE POP DUP2 ADD SWAP1 PUSH3 0x948 SWAP2 SWAP1 PUSH3 0x195C JUMP JUMPDEST SWAP6 POP PUSH1 0x0 DUP7 GT DUP1 ISZERO PUSH3 0x95F JUMPI POP PUSH1 0x0 DUP3 PUSH1 0x3 ADD SLOAD GT JUMPDEST ISZERO PUSH3 0x987 JUMPI PUSH1 0x3 DUP3 ADD SLOAD PUSH3 0x978 DUP8 PUSH2 0x2710 PUSH3 0x1976 JUMP JUMPDEST PUSH3 0x984 SWAP2 SWAP1 PUSH3 0x1827 JUMP JUMPDEST SWAP5 POP JUMPDEST DUP6 ISZERO PUSH3 0x9F4 JUMPI PUSH1 0x0 DUP3 PUSH1 0x3 ADD SLOAD DUP4 PUSH1 0x4 ADD SLOAD DUP9 PUSH3 0x9A7 SWAP2 SWAP1 PUSH3 0x1976 JUMP JUMPDEST PUSH3 0x9B3 SWAP2 SWAP1 PUSH3 0x1827 JUMP JUMPDEST PUSH1 0x0 DUP11 DUP2 MSTORE PUSH1 0x2 PUSH1 0x20 SWAP1 DUP2 MSTORE PUSH1 0x40 DUP1 DUP4 KECCAK256 PUSH1 0x1 PUSH1 0x1 PUSH1 0xA0 SHL SUB DUP14 AND DUP5 MSTORE SWAP1 SWAP2 MSTORE SWAP1 KECCAK256 SLOAD SWAP1 SWAP2 POP DUP1 DUP3 GT ISZERO PUSH3 0x9F1 JUMPI PUSH3 0x9EE DUP2 DUP4 PUSH3 0x1996 JUMP JUMPDEST SWAP6 POP JUMPDEST POP POP JUMPDEST POP POP POP SWAP3 POP SWAP3 POP SWAP3 JUMP JUMPDEST PUSH1 0x0 DUP4 DUP2 MSTORE PUSH1 0x1 PUSH1 0x20 MSTORE PUSH1 0x40 DUP2 KECCAK256 SLOAD DUP5 SWAP2 SUB PUSH3 0xA2F JUMPI PUSH1 0x40 MLOAD PUSH3 0x461BCD PUSH1 0xE5 SHL DUP2 MSTORE PUSH1 0x4 ADD PUSH3 0x4B9 SWAP1 PUSH3 0x1767 JUMP JUMPDEST PUSH1 0x0 DUP5 DUP2 MSTORE PUSH1 0x1 PUSH1 0x20 MSTORE PUSH1 0x40 SWAP1 KECCAK256 PUSH1 0x5 ADD SLOAD DUP5 SWAP1 PUSH1 0xFF AND PUSH3 0xA65 JUMPI PUSH1 0x40 MLOAD PUSH3 0x461BCD PUSH1 0xE5 SHL DUP2 MSTORE PUSH1 0x4 ADD PUSH3 0x4B9 SWAP1 PUSH3 0x19AC JUMP JUMPDEST PUSH1 0x1 PUSH1 0x1 PUSH1 0xA0 SHL SUB DUP5 AND PUSH3 0xABD JUMPI PUSH1 0x40 MLOAD PUSH3 0x461BCD PUSH1 0xE5 SHL DUP2 MSTORE PUSH1 0x20 PUSH1 0x4 DUP3 ADD MSTORE PUSH1 0x1F PUSH1 0x24 DUP3 ADD MSTORE PUSH32 0x43616E6E6F74207472616E7366657220746F207A65726F206164647265737300 PUSH1 0x44 DUP3 ADD MSTORE PUSH1 0x64 ADD PUSH3 0x4B9 JUMP JUMPDEST PUSH1 0x0 DUP4 GT PUSH3 0xB0F JUMPI PUSH1 0x40 MLOAD PUSH3 0x461BCD PUSH1 0xE5 SHL DUP2 MSTORE PUSH1 0x20 PUSH1 0x4 DUP3 ADD DUP2 SWAP1 MSTORE PUSH1 0x24 DUP3 ADD MSTORE PUSH32 0x416D6F756E74206D7573742062652067726561746572207468616E207A65726F PUSH1 0x44 DUP3 ADD MSTORE PUSH1 0x64 ADD PUSH3 0x4B9 JUMP JUMPDEST PUSH1 0x0 DUP6 DUP2 MSTORE PUSH1 0x1 PUSH1 0x20 MSTORE PUSH1 0x40 DUP1 DUP3 KECCAK256 PUSH1 0x2 DUP2 ADD SLOAD SWAP2 MLOAD PUSH4 0x23B872DD PUSH1 0xE0 SHL DUP2 MSTORE CALLER PUSH1 0x4 DUP3 ADD MSTORE PUSH1 0x1 PUSH1 0x1 PUSH1 0xA0 SHL SUB DUP9 DUP2 AND PUSH1 0x24 DUP4 ADD MSTORE PUSH1 0x44 DUP3 ADD DUP9 SWAP1 MSTORE SWAP2 SWAP4 SWAP2 SWAP1 SWAP3 AND SWAP2 DUP3 SWAP1 PUSH4 0x23B872DD SWAP1 PUSH1 0x64 ADD PUSH1 0x20 PUSH1 0x40 MLOAD DUP1 DUP4 SUB DUP2 PUSH1 0x0 DUP8 GAS CALL ISZERO DUP1 ISZERO PUSH3 0xB7E JUMPI RETURNDATASIZE PUSH1 0x0 DUP1 RETURNDATACOPY RETURNDATASIZE PUSH1 0x0 REVERT JUMPDEST POP POP POP POP PUSH1 0x40 MLOAD RETURNDATASIZE PUSH1 0x1F NOT PUSH1 0x1F DUP3 ADD AND DUP3 ADD DUP1 PUSH1 0x40 MSTORE POP DUP2 ADD SWAP1 PUSH3 0xBA4 SWAP2 SWAP1 PUSH3 0x19E3 JUMP JUMPDEST SWAP1 POP DUP1 PUSH3 0xBE7 JUMPI PUSH1 0x40 MLOAD PUSH3 0x461BCD PUSH1 0xE5 SHL DUP2 MSTORE PUSH1 0x20 PUSH1 0x4 DUP3 ADD MSTORE PUSH1 0xF PUSH1 0x24 DUP3 ADD MSTORE PUSH15 0x151C985B9CD9995C8819985A5B1959 PUSH1 0x8A SHL PUSH1 0x44 DUP3 ADD MSTORE PUSH1 0x64 ADD PUSH3 0x4B9 JUMP JUMPDEST DUP7 PUSH1 0x1 PUSH1 0x1 PUSH1 0xA0 SHL SUB AND CALLER PUSH1 0x1 PUSH1 0x1 PUSH1 0xA0 SHL SUB AND DUP10 PUSH32 0x78DC4AB325D618A4100F0B44DA2F25725CD94B780060F6B9E87065E9C0B12EBD DUP10 PUSH1 0x40 MLOAD PUSH3 0xC2E SWAP2 DUP2 MSTORE PUSH1 0x20 ADD SWAP1 JUMP JUMPDEST PUSH1 0x40 MLOAD DUP1 SWAP2 SUB SWAP1 LOG4 POP POP POP POP POP POP POP POP JUMP JUMPDEST PUSH1 0x0 DUP3 DUP2 MSTORE PUSH1 0x1 PUSH1 0x20 MSTORE PUSH1 0x40 DUP2 KECCAK256 SLOAD DUP4 SWAP1 DUP3 SUB PUSH3 0xC72 JUMPI PUSH1 0x40 MLOAD PUSH3 0x461BCD PUSH1 0xE5 SHL DUP2 MSTORE PUSH1 0x4 ADD PUSH3 0x4B9 SWAP1 PUSH3 0x1767 JUMP JUMPDEST PUSH1 0x0 DUP5 DUP2 MSTORE PUSH1 0x1 PUSH1 0x20 MSTORE PUSH1 0x40 SWAP1 KECCAK256 PUSH1 0x5 ADD SLOAD DUP5 SWAP1 PUSH1 0xFF AND PUSH3 0xCA8 JUMPI PUSH1 0x40 MLOAD PUSH3 0x461BCD PUSH1 0xE5 SHL DUP2 MSTORE PUSH1 0x4 ADD PUSH3 0x4B9 SWAP1 PUSH3 0x19AC JUMP JUMPDEST PUSH1 0x0 DUP6 DUP2 MSTORE PUSH1 0x1 PUSH1 0x20 MSTORE PUSH1 0x40 DUP1 DUP3 KECCAK256 PUSH1 0x2 DUP2 ADD SLOAD SWAP2 MLOAD PUSH4 0x70A08231 PUSH1 0xE0 SHL DUP2 MSTORE PUSH1 0x1 PUSH1 0x1 PUSH1 0xA0 SHL SUB DUP9 DUP2 AND PUSH1 0x4 DUP4 ADD MSTORE SWAP2 SWAP4 SWAP2 SWAP1 SWAP3 AND SWAP2 DUP3 SWAP1 PUSH4 0x70A08231 SWAP1 PUSH1 0x24 ADD PUSH1 0x20 PUSH1 0x40 MLOAD DUP1 DUP4 SUB DUP2 DUP7 GAS STATICCALL ISZERO DUP1 ISZERO PUSH3 0xD08 JUMPI RETURNDATASIZE PUSH1 0x0 DUP1 RETURNDATACOPY RETURNDATASIZE PUSH1 0x0 REVERT JUMPDEST POP POP POP POP PUSH1 0x40 MLOAD RETURNDATASIZE PUSH1 0x1F NOT PUSH1 0x1F DUP3 ADD AND DUP3 ADD DUP1 PUSH1 0x40 MSTORE POP DUP2 ADD SWAP1 PUSH3 0xD2E SWAP2 SWAP1 PUSH3 0x195C JUMP JUMPDEST SWAP1 POP DUP1 PUSH1 0x0 SUB PUSH3 0xD46 JUMPI PUSH1 0x0 SWAP6 POP POP POP POP PUSH3 0xDBC JUMP JUMPDEST PUSH1 0x0 DUP4 PUSH1 0x3 ADD SLOAD DUP5 PUSH1 0x4 ADD SLOAD DUP4 PUSH3 0xD5F SWAP2 SWAP1 PUSH3 0x1976 JUMP JUMPDEST PUSH3 0xD6B SWAP2 SWAP1 PUSH3 0x1827 JUMP JUMPDEST PUSH1 0x0 DUP11 DUP2 MSTORE PUSH1 0x2 PUSH1 0x20 SWAP1 DUP2 MSTORE PUSH1 0x40 DUP1 DUP4 KECCAK256 PUSH1 0x1 PUSH1 0x1 PUSH1 0xA0 SHL SUB DUP14 AND DUP5 MSTORE SWAP1 SWAP2 MSTORE SWAP1 KECCAK256 SLOAD SWAP1 SWAP2 POP DUP1 DUP3 GT PUSH3 0xDA8 JUMPI PUSH1 0x0 SWAP8 POP POP POP POP POP POP PUSH3 0xDBC JUMP JUMPDEST PUSH3 0xDB4 DUP2 DUP4 PUSH3 0x1996 JUMP JUMPDEST SWAP8 POP POP POP POP POP POP JUMPDEST POP POP SWAP3 SWAP2 POP POP JUMP JUMPDEST PUSH1 0x0 DUP2 DUP2 MSTORE PUSH1 0x1 PUSH1 0x20 MSTORE PUSH1 0x40 DUP2 KECCAK256 SLOAD DUP3 SWAP2 SUB PUSH3 0xDF5 JUMPI PUSH1 0x40 MLOAD PUSH3 0x461BCD PUSH1 0xE5 SHL DUP2 MSTORE PUSH1 0x4 ADD PUSH3 0x4B9 SWAP1 PUSH3 0x1767 JUMP JUMPDEST PUSH1 0x0 DUP3 DUP2 MSTORE PUSH1 0x1 PUSH1 0x20 MSTORE PUSH1 0x40 SWAP1 KECCAK256 PUSH1 0x5 ADD SLOAD DUP3 SWAP1 PUSH1 0xFF AND PUSH3 0xE2B JUMPI PUSH1 0x40 MLOAD PUSH3 0x461BCD PUSH1 0xE5 SHL DUP2 MSTORE PUSH1 0x4 ADD PUSH3 0x4B9 SWAP1 PUSH3 0x19AC JUMP JUMPDEST PUSH1 0x0 DUP4 DUP2 MSTORE PUSH1 0x1 PUSH1 0x20 MSTORE PUSH1 0x40 DUP1 DUP3 KECCAK256 PUSH1 0x2 DUP2 ADD SLOAD SWAP2 MLOAD PUSH4 0x70A08231 PUSH1 0xE0 SHL DUP2 MSTORE CALLER PUSH1 0x4 DUP3 ADD MSTORE SWAP1 SWAP3 PUSH1 0x1 PUSH1 0x1 PUSH1 0xA0 SHL SUB SWAP1 SWAP3 AND SWAP2 SWAP1 DUP3 SWAP1 PUSH4 0x70A08231 SWAP1 PUSH1 0x24 ADD PUSH1 0x20 PUSH1 0x40 MLOAD DUP1 DUP4 SUB DUP2 DUP7 GAS STATICCALL ISZERO DUP1 ISZERO PUSH3 0xE89 JUMPI RETURNDATASIZE PUSH1 0x0 DUP1 RETURNDATACOPY RETURNDATASIZE PUSH1 0x0 REVERT JUMPDEST POP POP POP POP PUSH1 0x40 MLOAD RETURNDATASIZE PUSH1 0x1F NOT PUSH1 0x1F DUP3 ADD AND DUP3 ADD DUP1 PUSH1 0x40 MSTORE POP DUP2 ADD SWAP1 PUSH3 0xEAF SWAP2 SWAP1 PUSH3 0x195C JUMP JUMPDEST SWAP1 POP PUSH1 0x0 DUP2 GT PUSH3 0xEF5 JUMPI PUSH1 0x40 MLOAD PUSH3 0x461BCD PUSH1 0xE5 SHL DUP2 MSTORE PUSH1 0x20 PUSH1 0x4 DUP3 ADD MSTORE PUSH1 0xF PUSH1 0x24 DUP3 ADD MSTORE PUSH15 0x139BC81CDA185C995CC81BDDDB9959 PUSH1 0x8A SHL PUSH1 0x44 DUP3 ADD MSTORE PUSH1 0x64 ADD PUSH3 0x4B9 JUMP JUMPDEST PUSH1 0x0 DUP4 PUSH1 0x3 ADD SLOAD DUP5 PUSH1 0x4 ADD SLOAD DUP4 PUSH3 0xF0E SWAP2 SWAP1 PUSH3 0x1976 JUMP JUMPDEST PUSH3 0xF1A SWAP2 SWAP1 PUSH3 0x1827 JUMP JUMPDEST PUSH1 0x0 DUP9 DUP2 MSTORE PUSH1 0x2 PUSH1 0x20 SWAP1 DUP2 MSTORE PUSH1 0x40 DUP1 DUP4 KECCAK256 CALLER DUP5 MSTORE SWAP1 SWAP2 MSTORE SWAP1 KECCAK256 SLOAD SWAP1 SWAP2 POP DUP1 DUP3 GT PUSH3 0xF80 JUMPI PUSH1 0x40 MLOAD PUSH3 0x461BCD PUSH1 0xE5 SHL DUP2 MSTORE PUSH1 0x20 PUSH1 0x4 DUP3 ADD MSTORE PUSH1 0x15 PUSH1 0x24 DUP3 ADD MSTORE PUSH21 0x4E6F206469766964656E647320746F20636C61696D PUSH1 0x58 SHL PUSH1 0x44 DUP3 ADD MSTORE PUSH1 0x64 ADD PUSH3 0x4B9 JUMP JUMPDEST PUSH1 0x0 PUSH3 0xF8E DUP3 DUP5 PUSH3 0x1996 JUMP JUMPDEST PUSH1 0x0 DUP11 DUP2 MSTORE PUSH1 0x2 PUSH1 0x20 SWAP1 DUP2 MSTORE PUSH1 0x40 DUP1 DUP4 KECCAK256 CALLER DUP1 DUP6 MSTORE SWAP3 MSTORE DUP1 DUP4 KECCAK256 DUP8 SWAP1 SSTORE MLOAD SWAP3 SWAP4 POP SWAP2 DUP4 ISZERO PUSH2 0x8FC MUL SWAP2 DUP5 SWAP2 SWAP1 DUP2 DUP2 DUP2 DUP6 DUP9 DUP9 CALL SWAP4 POP POP POP POP ISZERO DUP1 ISZERO PUSH3 0xFD8 JUMPI RETURNDATASIZE PUSH1 0x0 DUP1 RETURNDATACOPY RETURNDATASIZE PUSH1 0x0 REVERT JUMPDEST POP PUSH1 0x40 MLOAD DUP2 DUP2 MSTORE CALLER SWAP1 DUP11 SWAP1 PUSH32 0x6F7CA1E26318BA002EAAD671DB8B3DAC8C655CB4998FE4F30E25C1506BAF2403 SWAP1 PUSH1 0x20 ADD JUMPDEST PUSH1 0x40 MLOAD DUP1 SWAP2 SUB SWAP1 LOG3 POP POP POP POP POP POP POP POP POP JUMP JUMPDEST PUSH1 0x0 DUP3 DUP2 MSTORE PUSH1 0x1 PUSH1 0x20 MSTORE PUSH1 0x40 DUP2 KECCAK256 SLOAD DUP4 SWAP2 SUB PUSH3 0x104D JUMPI PUSH1 0x40 MLOAD PUSH3 0x461BCD PUSH1 0xE5 SHL DUP2 MSTORE PUSH1 0x4 ADD PUSH3 0x4B9 SWAP1 PUSH3 0x1767 JUMP JUMPDEST PUSH1 0x0 DUP4 DUP2 MSTORE PUSH1 0x1 PUSH1 0x20 MSTORE PUSH1 0x40 SWAP1 KECCAK256 PUSH1 0x5 ADD SLOAD DUP4 SWAP1 PUSH1 0xFF AND PUSH3 0x1083 JUMPI PUSH1 0x40 MLOAD PUSH3 0x461BCD PUSH1 0xE5 SHL DUP2 MSTORE PUSH1 0x4 ADD PUSH3 0x4B9 SWAP1 PUSH3 0x19AC JUMP JUMPDEST PUSH1 0x0 DUP4 GT PUSH3 0x10D5 JUMPI PUSH1 0x40 MLOAD PUSH3 0x461BCD PUSH1 0xE5 SHL DUP2 MSTORE PUSH1 0x20 PUSH1 0x4 DUP3 ADD DUP2 SWAP1 MSTORE PUSH1 0x24 DUP3 ADD MSTORE PUSH32 0x416D6F756E74206D7573742062652067726561746572207468616E207A65726F PUSH1 0x44 DUP3 ADD MSTORE PUSH1 0x64 ADD PUSH3 0x4B9 JUMP JUMPDEST PUSH1 0x0 DUP5 DUP2 MSTORE PUSH1 0x1 PUSH1 0x20 MSTORE PUSH1 0x40 DUP2 KECCAK256 PUSH1 0x2 DUP2 ADD SLOAD PUSH1 0x6 DUP3 ADD SLOAD SWAP2 SWAP3 PUSH1 0x1 PUSH1 0x1 PUSH1 0xA0 SHL SUB SWAP1 SWAP2 AND SWAP2 PUSH3 0x1108 SWAP1 DUP8 SWAP1 PUSH3 0x1976 JUMP JUMPDEST SWAP1 POP DUP1 CALLVALUE LT ISZERO PUSH3 0x1153 JUMPI PUSH1 0x40 MLOAD PUSH3 0x461BCD PUSH1 0xE5 SHL DUP2 MSTORE PUSH1 0x20 PUSH1 0x4 DUP3 ADD MSTORE PUSH1 0x14 PUSH1 0x24 DUP3 ADD MSTORE PUSH20 0x125B9CDD59999A58DA595B9D081C185E5B595B9D PUSH1 0x62 SHL PUSH1 0x44 DUP3 ADD MSTORE PUSH1 0x64 ADD PUSH3 0x4B9 JUMP JUMPDEST PUSH1 0x40 MLOAD PUSH4 0x70A08231 PUSH1 0xE0 SHL DUP2 MSTORE ADDRESS PUSH1 0x4 DUP3 ADD MSTORE PUSH1 0x0 SWAP1 PUSH1 0x1 PUSH1 0x1 PUSH1 0xA0 SHL SUB DUP5 AND SWAP1 PUSH4 0x70A08231 SWAP1 PUSH1 0x24 ADD PUSH1 0x20 PUSH1 0x40 MLOAD DUP1 DUP4 SUB DUP2 DUP7 GAS STATICCALL ISZERO DUP1 ISZERO PUSH3 0x119B JUMPI RETURNDATASIZE PUSH1 0x0 DUP1 RETURNDATACOPY RETURNDATASIZE PUSH1 0x0 REVERT JUMPDEST POP POP POP POP PUSH1 0x40 MLOAD RETURNDATASIZE PUSH1 0x1F NOT PUSH1 0x1F DUP3 ADD AND DUP3 ADD DUP1 PUSH1 0x40 MSTORE POP DUP2 ADD SWAP1 PUSH3 0x11C1 SWAP2 SWAP1 PUSH3 0x195C JUMP JUMPDEST SWAP1 POP DUP7 DUP2 LT ISZERO PUSH3 0x1215 JUMPI PUSH1 0x40 MLOAD PUSH3 0x461BCD PUSH1 0xE5 SHL DUP2 MSTORE PUSH1 0x20 PUSH1 0x4 DUP3 ADD MSTORE PUSH1 0x1B PUSH1 0x24 DUP3 ADD MSTORE PUSH32 0x4E6F7420656E6F7567682073686172657320617661696C61626C650000000000 PUSH1 0x44 DUP3 ADD MSTORE PUSH1 0x64 ADD PUSH3 0x4B9 JUMP JUMPDEST PUSH1 0x40 MLOAD PUSH4 0xA9059CBB PUSH1 0xE0 SHL DUP2 MSTORE CALLER PUSH1 0x4 DUP3 ADD MSTORE PUSH1 0x24 DUP2 ADD DUP9 SWAP1 MSTORE PUSH1 0x0 SWAP1 PUSH1 0x1 PUSH1 0x1 PUSH1 0xA0 SHL SUB DUP6 AND SWAP1 PUSH4 0xA9059CBB SWAP1 PUSH1 0x44 ADD PUSH1 0x20 PUSH1 0x40 MLOAD DUP1 DUP4 SUB DUP2 PUSH1 0x0 DUP8 GAS CALL ISZERO DUP1 ISZERO PUSH3 0x1266 JUMPI RETURNDATASIZE PUSH1 0x0 DUP1 RETURNDATACOPY RETURNDATASIZE PUSH1 0x0 REVERT JUMPDEST POP POP POP POP PUSH1 0x40 MLOAD RETURNDATASIZE PUSH1 0x1F NOT PUSH1 0x1F DUP3 ADD AND DUP3 ADD DUP1 PUSH1 0x40 MSTORE POP DUP2 ADD SWAP1 PUSH3 0x128C SWAP2 SWAP1 PUSH3 0x19E3 JUMP JUMPDEST SWAP1 POP DUP1 PUSH3 0x12D5 JUMPI PUSH1 0x40 MLOAD PUSH3 0x461BCD PUSH1 0xE5 SHL DUP2 MSTORE PUSH1 0x20 PUSH1 0x4 DUP3 ADD MSTORE PUSH1 0x15 PUSH1 0x24 DUP3 ADD MSTORE PUSH21 0x14DA185C99481D1C985B9CD9995C8819985A5B1959 PUSH1 0x5A SHL PUSH1 0x44 DUP3 ADD MSTORE PUSH1 0x64 ADD PUSH3 0x4B9 JUMP JUMPDEST DUP3 CALLVALUE GT ISZERO PUSH3 0x1319 JUMPI CALLER PUSH2 0x8FC PUSH3 0x12EE DUP6 CALLVALUE PUSH3 0x1996 JUMP JUMPDEST PUSH1 0x40 MLOAD DUP2 ISZERO SWAP1 SWAP3 MUL SWAP2 PUSH1 0x0 DUP2 DUP2 DUP2 DUP6 DUP9 DUP9 CALL SWAP4 POP POP POP POP ISZERO DUP1 ISZERO PUSH3 0x1317 JUMPI RETURNDATASIZE PUSH1 0x0 DUP1 RETURNDATACOPY RETURNDATASIZE PUSH1 0x0 REVERT JUMPDEST POP JUMPDEST PUSH1 0x40 DUP1 MLOAD DUP10 DUP2 MSTORE PUSH1 0x20 DUP2 ADD DUP6 SWAP1 MSTORE CALLER SWAP2 DUP12 SWAP2 PUSH32 0xCE81571C08C76465BDF390AD1ABE80AF8C51C6C4566E3485F9395F13D5AD6328 SWAP2 ADD PUSH3 0x1009 JUMP JUMPDEST PUSH1 0x0 DUP2 DUP2 MSTORE PUSH1 0x1 PUSH1 0x20 MSTORE PUSH1 0x40 DUP2 KECCAK256 SLOAD DUP3 SWAP2 SUB PUSH3 0x1385 JUMPI PUSH1 0x40 MLOAD PUSH3 0x461BCD PUSH1 0xE5 SHL DUP2 MSTORE PUSH1 0x4 ADD PUSH3 0x4B9 SWAP1 PUSH3 0x1767 JUMP JUMPDEST PUSH1 0x0 DUP3 DUP2 MSTORE PUSH1 0x1 PUSH1 0x20 MSTORE PUSH1 0x40 SWAP1 KECCAK256 PUSH1 0x5 ADD SLOAD DUP3 SWAP1 PUSH1 0xFF AND PUSH3 0x13BB JUMPI PUSH1 0x40 MLOAD PUSH3 0x461BCD PUSH1 0xE5 SHL DUP2 MSTORE PUSH1 0x4 ADD PUSH3 0x4B9 SWAP1 PUSH3 0x19AC JUMP JUMPDEST PUSH1 0x0 CALLVALUE GT PUSH3 0x141B JUMPI PUSH1 0x40 MLOAD PUSH3 0x461BCD PUSH1 0xE5 SHL DUP2 MSTORE PUSH1 0x20 PUSH1 0x4 DUP3 ADD MSTORE PUSH1 0x25 PUSH1 0x24 DUP3 ADD MSTORE PUSH32 0x52656E7420616D6F756E74206D7573742062652067726561746572207468616E PUSH1 0x44 DUP3 ADD MSTORE PUSH5 0x207A65726F PUSH1 0xD8 SHL PUSH1 0x64 DUP3 ADD MSTORE PUSH1 0x84 ADD PUSH3 0x4B9 JUMP JUMPDEST PUSH1 0x0 DUP4 DUP2 MSTORE PUSH1 0x1 PUSH1 0x20 MSTORE PUSH1 0x40 DUP2 KECCAK256 PUSH1 0x4 DUP2 ADD DUP1 SLOAD SWAP2 SWAP3 CALLVALUE SWAP3 PUSH3 0x1440 SWAP1 DUP5 SWAP1 PUSH3 0x1A0E JUMP JUMPDEST SWAP1 SWAP2 SSTORE POP POP PUSH1 0x4 DUP2 ADD SLOAD PUSH1 0x40 MLOAD DUP6 SWAP2 PUSH32 0x5B0625389F5C45AEC4711EADE1592234CDDDBA345DE2A262C6772ED87224CF55 SWAP2 PUSH3 0x1484 SWAP2 CALLVALUE DUP3 MSTORE PUSH1 0x20 DUP3 ADD MSTORE PUSH1 0x40 ADD SWAP1 JUMP JUMPDEST PUSH1 0x40 MLOAD DUP1 SWAP2 SUB SWAP1 LOG2 POP POP POP POP JUMP JUMPDEST PUSH1 0x60 DUP2 PUSH1 0x0 SUB PUSH3 0x14BA JUMPI POP POP PUSH1 0x40 DUP1 MLOAD DUP1 DUP3 ADD SWAP1 SWAP2 MSTORE PUSH1 0x1 DUP2 MSTORE PUSH1 0x3 PUSH1 0xFC SHL PUSH1 0x20 DUP3 ADD MSTORE SWAP1 JUMP JUMPDEST DUP2 PUSH1 0x0 JUMPDEST DUP2 ISZERO PUSH3 0x14EA JUMPI DUP1 PUSH3 0x14D1 DUP2 PUSH3 0x17F5 JUMP JUMPDEST SWAP2 POP PUSH3 0x14E2 SWAP1 POP PUSH1 0xA DUP4 PUSH3 0x1827 JUMP JUMPDEST SWAP2 POP PUSH3 0x14BE JUMP JUMPDEST PUSH1 0x0 DUP2 PUSH8 0xFFFFFFFFFFFFFFFF DUP2 GT ISZERO PUSH3 0x1508 JUMPI PUSH3 0x1508 PUSH3 0x15FF JUMP JUMPDEST PUSH1 0x40 MLOAD SWAP1 DUP1 DUP3 MSTORE DUP1 PUSH1 0x1F ADD PUSH1 0x1F NOT AND PUSH1 0x20 ADD DUP3 ADD PUSH1 0x40 MSTORE DUP1 ISZERO PUSH3 0x1533 JUMPI PUSH1 0x20 DUP3 ADD DUP2 DUP1 CALLDATASIZE DUP4 CALLDATACOPY ADD SWAP1 POP JUMPDEST POP SWAP1 POP JUMPDEST DUP5 ISZERO PUSH3 0x15AC JUMPI DUP2 PUSH3 0x154A DUP2 PUSH3 0x1A24 JUMP JUMPDEST SWAP3 POP PUSH3 0x155B SWAP1 POP PUSH1 0xA DUP7 PUSH3 0x1A3E JUMP JUMPDEST PUSH3 0x1568 SWAP1 PUSH1 0x30 PUSH3 0x1A0E JUMP JUMPDEST PUSH1 0xF8 SHL DUP2 DUP4 DUP2 MLOAD DUP2 LT PUSH3 0x1580 JUMPI PUSH3 0x1580 PUSH3 0x1A55 JUMP JUMPDEST PUSH1 0x20 ADD ADD SWAP1 PUSH1 0x1 PUSH1 0x1 PUSH1 0xF8 SHL SUB NOT AND SWAP1 DUP2 PUSH1 0x0 BYTE SWAP1 MSTORE8 POP PUSH3 0x15A4 PUSH1 0xA DUP7 PUSH3 0x1827 JUMP JUMPDEST SWAP5 POP PUSH3 0x1537 JUMP JUMPDEST SWAP5 SWAP4 POP POP POP POP JUMP JUMPDEST PUSH2 0x1007 DUP1 PUSH3 0x1A6C DUP4 CODECOPY ADD SWAP1 JUMP JUMPDEST PUSH1 0x0 PUSH1 0x20 DUP3 DUP5 SUB SLT ISZERO PUSH3 0x15D5 JUMPI PUSH1 0x0 DUP1 REVERT JUMPDEST POP CALLDATALOAD SWAP2 SWAP1 POP JUMP JUMPDEST PUSH1 0x0 DUP1 PUSH1 0x40 DUP4 DUP6 SUB SLT ISZERO PUSH3 0x15F0 JUMPI PUSH1 0x0 DUP1 REVERT JUMPDEST POP POP DUP1 CALLDATALOAD SWAP3 PUSH1 0x20 SWAP1 SWAP2 ADD CALLDATALOAD SWAP2 POP JUMP JUMPDEST PUSH4 0x4E487B71 PUSH1 0xE0 SHL PUSH1 0x0 MSTORE PUSH1 0x41 PUSH1 0x4 MSTORE PUSH1 0x24 PUSH1 0x0 REVERT JUMPDEST PUSH1 0x0 DUP1 PUSH1 0x0 PUSH1 0x60 DUP5 DUP7 SUB SLT ISZERO PUSH3 0x162B JUMPI PUSH1 0x0 DUP1 REVERT JUMPDEST DUP4 CALLDATALOAD PUSH8 0xFFFFFFFFFFFFFFFF DUP1 DUP3 GT ISZERO PUSH3 0x1644 JUMPI PUSH1 0x0 DUP1 REVERT JUMPDEST DUP2 DUP7 ADD SWAP2 POP DUP7 PUSH1 0x1F DUP4 ADD SLT PUSH3 0x1659 JUMPI PUSH1 0x0 DUP1 REVERT JUMPDEST DUP2 CALLDATALOAD DUP2 DUP2 GT ISZERO PUSH3 0x166E JUMPI PUSH3 0x166E PUSH3 0x15FF JUMP JUMPDEST PUSH1 0x40 MLOAD PUSH1 0x1F DUP3 ADD PUSH1 0x1F NOT SWAP1 DUP2 AND PUSH1 0x3F ADD AND DUP2 ADD SWAP1 DUP4 DUP3 GT DUP2 DUP4 LT OR ISZERO PUSH3 0x1699 JUMPI PUSH3 0x1699 PUSH3 0x15FF JUMP JUMPDEST DUP2 PUSH1 0x40 MSTORE DUP3 DUP2 MSTORE DUP10 PUSH1 0x20 DUP5 DUP8 ADD ADD GT ISZERO PUSH3 0x16B3 JUMPI PUSH1 0x0 DUP1 REVERT JUMPDEST DUP3 PUSH1 0x20 DUP7 ADD PUSH1 0x20 DUP4 ADD CALLDATACOPY PUSH1 0x0 PUSH1 0x20 DUP5 DUP4 ADD ADD MSTORE DUP1 SWAP8 POP POP POP POP POP POP PUSH1 0x20 DUP5 ADD CALLDATALOAD SWAP2 POP PUSH1 0x40 DUP5 ADD CALLDATALOAD SWAP1 POP SWAP3 POP SWAP3 POP SWAP3 JUMP JUMPDEST DUP1 CALLDATALOAD PUSH1 0x1 PUSH1 0x1 PUSH1 0xA0 SHL SUB DUP2 AND DUP2 EQ PUSH3 0x16FB JUMPI PUSH1 0x0 DUP1 REVERT JUMPDEST SWAP2 SWAP1 POP JUMP JUMPDEST PUSH1 0x0 DUP1 PUSH1 0x40 DUP4 DUP6 SUB SLT ISZERO PUSH3 0x1714 JUMPI PUSH1 0x0 DUP1 REVERT JUMPDEST DUP3 CALLDATALOAD SWAP2 POP PUSH3 0x1726 PUSH1 0x20 DUP5 ADD PUSH3 0x16E3 JUMP JUMPDEST SWAP1 POP SWAP3 POP SWAP3 SWAP1 POP JUMP JUMPDEST PUSH1 0x0 DUP1 PUSH1 0x0 PUSH1 0x60 DUP5 DUP7 SUB SLT ISZERO PUSH3 0x1745 JUMPI PUSH1 0x0 DUP1 REVERT JUMPDEST DUP4 CALLDATALOAD SWAP3 POP PUSH3 0x1757 PUSH1 0x20 DUP6 ADD PUSH3 0x16E3 JUMP JUMPDEST SWAP2 POP PUSH1 0x40 DUP5 ADD CALLDATALOAD SWAP1 POP SWAP3 POP SWAP3 POP SWAP3 JUMP JUMPDEST PUSH1 0x20 DUP1 DUP3 MSTORE PUSH1 0x17 SWAP1 DUP3 ADD MSTORE PUSH32 0x50726F706572747920646F6573206E6F74206578697374000000000000000000 PUSH1 0x40 DUP3 ADD MSTORE PUSH1 0x60 ADD SWAP1 JUMP JUMPDEST PUSH1 0x20 DUP1 DUP3 MSTORE PUSH1 0x21 SWAP1 DUP3 ADD MSTORE PUSH32 0x4F6E6C79206F776E65722063616E2063616C6C20746869732066756E6374696F PUSH1 0x40 DUP3 ADD MSTORE PUSH1 0x37 PUSH1 0xF9 SHL PUSH1 0x60 DUP3 ADD MSTORE PUSH1 0x80 ADD SWAP1 JUMP JUMPDEST PUSH4 0x4E487B71 PUSH1 0xE0 SHL PUSH1 0x0 MSTORE PUSH1 0x11 PUSH1 0x4 MSTORE PUSH1 0x24 PUSH1 0x0 REVERT JUMPDEST PUSH1 0x0 PUSH1 0x1 DUP3 ADD PUSH3 0x180A JUMPI PUSH3 0x180A PUSH3 0x17DF JUMP JUMPDEST POP PUSH1 0x1 ADD SWAP1 JUMP JUMPDEST PUSH4 0x4E487B71 PUSH1 0xE0 SHL PUSH1 0x0 MSTORE PUSH1 0x12 PUSH1 0x4 MSTORE PUSH1 0x24 PUSH1 0x0 REVERT JUMPDEST PUSH1 0x0 DUP3 PUSH3 0x1839 JUMPI PUSH3 0x1839 PUSH3 0x1811 JUMP JUMPDEST POP DIV SWAP1 JUMP JUMPDEST PUSH1 0x0 JUMPDEST DUP4 DUP2 LT ISZERO PUSH3 0x185B JUMPI DUP2 DUP2 ADD MLOAD DUP4 DUP3 ADD MSTORE PUSH1 0x20 ADD PUSH3 0x1841 JUMP JUMPDEST POP POP PUSH1 0x0 SWAP2 ADD MSTORE JUMP JUMPDEST PUSH9 0x283937B832B93A3C9 PUSH1 0xBD SHL DUP2 MSTORE PUSH1 0x0 DUP3 MLOAD PUSH3 0x188A DUP2 PUSH1 0x9 DUP6 ADD PUSH1 0x20 DUP8 ADD PUSH3 0x183E JUMP JUMPDEST PUSH7 0x20536861726573 PUSH1 0xC8 SHL PUSH1 0x9 SWAP4 SWAP1 SWAP2 ADD SWAP3 DUP4 ADD MSTORE POP PUSH1 0x10 ADD SWAP2 SWAP1 POP JUMP JUMPDEST PUSH1 0x5 PUSH1 0xFC SHL DUP2 MSTORE PUSH1 0x0 DUP3 MLOAD PUSH3 0x18C6 DUP2 PUSH1 0x1 DUP6 ADD PUSH1 0x20 DUP8 ADD PUSH3 0x183E JUMP JUMPDEST PUSH1 0x53 PUSH1 0xF8 SHL PUSH1 0x1 SWAP4 SWAP1 SWAP2 ADD SWAP3 DUP4 ADD MSTORE POP PUSH1 0x2 ADD SWAP2 SWAP1 POP JUMP JUMPDEST PUSH1 0x0 DUP2 MLOAD DUP1 DUP5 MSTORE PUSH3 0x18F8 DUP2 PUSH1 0x20 DUP7 ADD PUSH1 0x20 DUP7 ADD PUSH3 0x183E JUMP JUMPDEST PUSH1 0x1F ADD PUSH1 0x1F NOT AND SWAP3 SWAP1 SWAP3 ADD PUSH1 0x20 ADD SWAP3 SWAP2 POP POP JUMP JUMPDEST PUSH1 0xA0 DUP2 MSTORE PUSH1 0x0 PUSH3 0x1921 PUSH1 0xA0 DUP4 ADD DUP9 PUSH3 0x18DE JUMP JUMPDEST DUP3 DUP2 SUB PUSH1 0x20 DUP5 ADD MSTORE PUSH3 0x1935 DUP2 DUP9 PUSH3 0x18DE JUMP JUMPDEST PUSH1 0x40 DUP5 ADD SWAP7 SWAP1 SWAP7 MSTORE POP POP PUSH1 0x1 PUSH1 0x1 PUSH1 0xA0 SHL SUB SWAP3 SWAP1 SWAP3 AND PUSH1 0x60 DUP4 ADD MSTORE PUSH1 0x80 SWAP1 SWAP2 ADD MSTORE SWAP3 SWAP2 POP POP JUMP JUMPDEST PUSH1 0x0 PUSH1 0x20 DUP3 DUP5 SUB SLT ISZERO PUSH3 0x196F JUMPI PUSH1 0x0 DUP1 REVERT JUMPDEST POP MLOAD SWAP2 SWAP1 POP JUMP JUMPDEST DUP1 DUP3 MUL DUP2 ISZERO DUP3 DUP3 DIV DUP5 EQ OR PUSH3 0x1990 JUMPI PUSH3 0x1990 PUSH3 0x17DF JUMP JUMPDEST SWAP3 SWAP2 POP POP JUMP JUMPDEST DUP2 DUP2 SUB DUP2 DUP2 GT ISZERO PUSH3 0x1990 JUMPI PUSH3 0x1990 PUSH3 0x17DF JUMP JUMPDEST PUSH1 0x20 DUP1 DUP3 MSTORE PUSH1 0x1B SWAP1 DUP3 ADD MSTORE PUSH32 0x50726F7065727479206E6F74206672616374696F6E616C697A65640000000000 PUSH1 0x40 DUP3 ADD MSTORE PUSH1 0x60 ADD SWAP1 JUMP JUMPDEST PUSH1 0x0 PUSH1 0x20 DUP3 DUP5 SUB SLT ISZERO PUSH3 0x19F6 JUMPI PUSH1 0x0 DUP1 REVERT JUMPDEST DUP2 MLOAD DUP1 ISZERO ISZERO DUP2 EQ PUSH3 0x1A07 JUMPI PUSH1 0x0 DUP1 REVERT JUMPDEST SWAP4 SWAP3 POP POP POP JUMP JUMPDEST DUP1 DUP3 ADD DUP1 DUP3 GT ISZERO PUSH3 0x1990 JUMPI PUSH3 0x1990 PUSH3 0x17DF JUMP JUMPDEST PUSH1 0x0 DUP2 PUSH3 0x1A36 JUMPI PUSH3 0x1A36 PUSH3 0x17DF JUMP JUMPDEST POP PUSH1 0x0 NOT ADD SWAP1 JUMP JUMPDEST PUSH1 0x0 DUP3 PUSH3 0x1A50 JUMPI PUSH3 0x1A50 PUSH3 0x1811 JUMP JUMPDEST POP MOD SWAP1 JUMP JUMPDEST PUSH4 0x4E487B71 PUSH1 0xE0 SHL PUSH1 0x0 MSTORE PUSH1 0x32 PUSH1 0x4 MSTORE PUSH1 0x24 PUSH1 0x0 REVERT INVALID PUSH1 0xE0 PUSH1 0x40 MSTORE CALLVALUE DUP1 ISZERO PUSH3 0x11 JUMPI PUSH1 0x0 DUP1 REVERT JUMPDEST POP PUSH1 0x40 MLOAD PUSH3 0x1007 CODESIZE SUB DUP1 PUSH3 0x1007 DUP4 CODECOPY DUP2 ADD PUSH1 0x40 DUP2 SWAP1 MSTORE PUSH3 0x34 SWAP2 PUSH3 0x35F JUMP JUMPDEST DUP5 DUP5 PUSH1 0x3 PUSH3 0x44 DUP4 DUP3 PUSH3 0x48F JUMP JUMPDEST POP PUSH1 0x4 PUSH3 0x53 DUP3 DUP3 PUSH3 0x48F JUMP JUMPDEST POP POP POP PUSH1 0x0 DUP4 GT PUSH3 0xAC JUMPI PUSH1 0x40 MLOAD PUSH3 0x461BCD PUSH1 0xE5 SHL DUP2 MSTORE PUSH1 0x20 PUSH1 0x4 DUP3 ADD DUP2 SWAP1 MSTORE PUSH1 0x24 DUP3 ADD MSTORE PUSH32 0x536861726573206D7573742062652067726561746572207468616E207A65726F PUSH1 0x44 DUP3 ADD MSTORE PUSH1 0x64 ADD JUMPDEST PUSH1 0x40 MLOAD DUP1 SWAP2 SUB SWAP1 REVERT JUMPDEST PUSH1 0x1 PUSH1 0x1 PUSH1 0xA0 SHL SUB DUP3 AND PUSH3 0x104 JUMPI PUSH1 0x40 MLOAD PUSH3 0x461BCD PUSH1 0xE5 SHL DUP2 MSTORE PUSH1 0x20 PUSH1 0x4 DUP3 ADD MSTORE PUSH1 0x1C PUSH1 0x24 DUP3 ADD MSTORE PUSH32 0x4F776E65722063616E6E6F74206265207A65726F206164647265737300000000 PUSH1 0x44 DUP3 ADD MSTORE PUSH1 0x64 ADD PUSH3 0xA3 JUMP JUMPDEST CALLER PUSH1 0x80 MSTORE PUSH1 0xA0 DUP2 SWAP1 MSTORE PUSH1 0xC0 DUP4 SWAP1 MSTORE PUSH3 0x11E DUP3 DUP5 PUSH3 0x129 JUMP JUMPDEST POP POP POP POP POP PUSH3 0x583 JUMP JUMPDEST PUSH1 0x1 PUSH1 0x1 PUSH1 0xA0 SHL SUB DUP3 AND PUSH3 0x155 JUMPI PUSH1 0x40 MLOAD PUSH4 0xEC442F05 PUSH1 0xE0 SHL DUP2 MSTORE PUSH1 0x0 PUSH1 0x4 DUP3 ADD MSTORE PUSH1 0x24 ADD PUSH3 0xA3 JUMP JUMPDEST PUSH3 0x163 PUSH1 0x0 DUP4 DUP4 PUSH3 0x167 JUMP JUMPDEST POP POP JUMP JUMPDEST PUSH1 0x1 PUSH1 0x1 PUSH1 0xA0 SHL SUB DUP4 AND PUSH3 0x196 JUMPI DUP1 PUSH1 0x2 PUSH1 0x0 DUP3 DUP3 SLOAD PUSH3 0x18A SWAP2 SWAP1 PUSH3 0x55B JUMP JUMPDEST SWAP1 SWAP2 SSTORE POP PUSH3 0x20A SWAP1 POP JUMP JUMPDEST PUSH1 0x1 PUSH1 0x1 PUSH1 0xA0 SHL SUB DUP4 AND PUSH1 0x0 SWAP1 DUP2 MSTORE PUSH1 0x20 DUP2 SWAP1 MSTORE PUSH1 0x40 SWAP1 KECCAK256 SLOAD DUP2 DUP2 LT ISZERO PUSH3 0x1EB JUMPI PUSH1 0x40 MLOAD PUSH4 0x391434E3 PUSH1 0xE2 SHL DUP2 MSTORE PUSH1 0x1 PUSH1 0x1 PUSH1 0xA0 SHL SUB DUP6 AND PUSH1 0x4 DUP3 ADD MSTORE PUSH1 0x24 DUP2 ADD DUP3 SWAP1 MSTORE PUSH1 0x44 DUP2 ADD DUP4 SWAP1 MSTORE PUSH1 0x64 ADD PUSH3 0xA3 JUMP JUMPDEST PUSH1 0x1 PUSH1 0x1 PUSH1 0xA0 SHL SUB DUP5 AND PUSH1 0x0 SWAP1 DUP2 MSTORE PUSH1 0x20 DUP2 SWAP1 MSTORE PUSH1 0x40 SWAP1 KECCAK256 SWAP1 DUP3 SWAP1 SUB SWAP1 SSTORE JUMPDEST PUSH1 0x1 PUSH1 0x1 PUSH1 0xA0 SHL SUB DUP3 AND PUSH3 0x228 JUMPI PUSH1 0x2 DUP1 SLOAD DUP3 SWAP1 SUB SWAP1 SSTORE PUSH3 0x247 JUMP JUMPDEST PUSH1 0x1 PUSH1 0x1 PUSH1 0xA0 SHL SUB DUP3 AND PUSH1 0x0 SWAP1 DUP2 MSTORE PUSH1 0x20 DUP2 SWAP1 MSTORE PUSH1 0x40 SWAP1 KECCAK256 DUP1 SLOAD DUP3 ADD SWAP1 SSTORE JUMPDEST DUP2 PUSH1 0x1 PUSH1 0x1 PUSH1 0xA0 SHL SUB AND DUP4 PUSH1 0x1 PUSH1 0x1 PUSH1 0xA0 SHL SUB AND PUSH32 0xDDF252AD1BE2C89B69C2B068FC378DAA952BA7F163C4A11628F55A4DF523B3EF DUP4 PUSH1 0x40 MLOAD PUSH3 0x28D SWAP2 DUP2 MSTORE PUSH1 0x20 ADD SWAP1 JUMP JUMPDEST PUSH1 0x40 MLOAD DUP1 SWAP2 SUB SWAP1 LOG3 POP POP POP JUMP JUMPDEST PUSH4 0x4E487B71 PUSH1 0xE0 SHL PUSH1 0x0 MSTORE PUSH1 0x41 PUSH1 0x4 MSTORE PUSH1 0x24 PUSH1 0x0 REVERT JUMPDEST PUSH1 0x0 DUP3 PUSH1 0x1F DUP4 ADD SLT PUSH3 0x2C2 JUMPI PUSH1 0x0 DUP1 REVERT JUMPDEST DUP2 MLOAD PUSH1 0x1 PUSH1 0x1 PUSH1 0x40 SHL SUB DUP1 DUP3 GT ISZERO PUSH3 0x2DF JUMPI PUSH3 0x2DF PUSH3 0x29A JUMP JUMPDEST PUSH1 0x40 MLOAD PUSH1 0x1F DUP4 ADD PUSH1 0x1F NOT SWAP1 DUP2 AND PUSH1 0x3F ADD AND DUP2 ADD SWAP1 DUP3 DUP3 GT DUP2 DUP4 LT OR ISZERO PUSH3 0x30A JUMPI PUSH3 0x30A PUSH3 0x29A JUMP JUMPDEST DUP2 PUSH1 0x40 MSTORE DUP4 DUP2 MSTORE PUSH1 0x20 SWAP3 POP DUP7 DUP4 DUP6 DUP9 ADD ADD GT ISZERO PUSH3 0x327 JUMPI PUSH1 0x0 DUP1 REVERT JUMPDEST PUSH1 0x0 SWAP2 POP JUMPDEST DUP4 DUP3 LT ISZERO PUSH3 0x34B JUMPI DUP6 DUP3 ADD DUP4 ADD MLOAD DUP2 DUP4 ADD DUP5 ADD MSTORE SWAP1 DUP3 ADD SWAP1 PUSH3 0x32C JUMP JUMPDEST PUSH1 0x0 SWAP4 DUP2 ADD SWAP1 SWAP3 ADD SWAP3 SWAP1 SWAP3 MSTORE SWAP5 SWAP4 POP POP POP POP JUMP JUMPDEST PUSH1 0x0 DUP1 PUSH1 0x0 DUP1 PUSH1 0x0 PUSH1 0xA0 DUP7 DUP9 SUB SLT ISZERO PUSH3 0x378 JUMPI PUSH1 0x0 DUP1 REVERT JUMPDEST DUP6 MLOAD PUSH1 0x1 PUSH1 0x1 PUSH1 0x40 SHL SUB DUP1 DUP3 GT ISZERO PUSH3 0x390 JUMPI PUSH1 0x0 DUP1 REVERT JUMPDEST PUSH3 0x39E DUP10 DUP4 DUP11 ADD PUSH3 0x2B0 JUMP JUMPDEST SWAP7 POP PUSH1 0x20 DUP9 ADD MLOAD SWAP2 POP DUP1 DUP3 GT ISZERO PUSH3 0x3B5 JUMPI PUSH1 0x0 DUP1 REVERT JUMPDEST POP PUSH3 0x3C4 DUP9 DUP3 DUP10 ADD PUSH3 0x2B0 JUMP JUMPDEST PUSH1 0x40 DUP9 ADD MLOAD PUSH1 0x60 DUP10 ADD MLOAD SWAP2 SWAP7 POP SWAP5 POP SWAP1 POP PUSH1 0x1 PUSH1 0x1 PUSH1 0xA0 SHL SUB DUP2 AND DUP2 EQ PUSH3 0x3EB JUMPI PUSH1 0x0 DUP1 REVERT JUMPDEST DUP1 SWAP3 POP POP PUSH1 0x80 DUP7 ADD MLOAD SWAP1 POP SWAP3 SWAP6 POP SWAP3 SWAP6 SWAP1 SWAP4 POP JUMP JUMPDEST PUSH1 0x1 DUP2 DUP2 SHR SWAP1 DUP3 AND DUP1 PUSH3 0x415 JUMPI PUSH1 0x7F DUP3 AND SWAP2 POP JUMPDEST PUSH1 0x20 DUP3 LT DUP2 SUB PUSH3 0x436 JUMPI PUSH4 0x4E487B71 PUSH1 0xE0 SHL PUSH1 0x0 MSTORE PUSH1 0x22 PUSH1 0x4 MSTORE PUSH1 0x24 PUSH1 0x0 REVERT JUMPDEST POP SWAP2 SWAP1 POP JUMP JUMPDEST PUSH1 0x1F DUP3 GT ISZERO PUSH3 0x48A JUMPI PUSH1 0x0 DUP2 DUP2 MSTORE PUSH1 0x20 DUP2 KECCAK256 PUSH1 0x1F DUP6 ADD PUSH1 0x5 SHR DUP2 ADD PUSH1 0x20 DUP7 LT ISZERO PUSH3 0x465 JUMPI POP DUP1 JUMPDEST PUSH1 0x1F DUP6 ADD PUSH1 0x5 SHR DUP3 ADD SWAP2 POP JUMPDEST DUP2 DUP2 LT ISZERO PUSH3 0x486 JUMPI DUP3 DUP2 SSTORE PUSH1 0x1 ADD PUSH3 0x471 JUMP JUMPDEST POP POP POP JUMPDEST POP POP POP JUMP JUMPDEST DUP2 MLOAD PUSH1 0x1 PUSH1 0x1 PUSH1 0x40 SHL SUB DUP2 GT ISZERO PUSH3 0x4AB JUMPI PUSH3 0x4AB PUSH3 0x29A JUMP JUMPDEST PUSH3 0x4C3 DUP2 PUSH3 0x4BC DUP5 SLOAD PUSH3 0x400 JUMP JUMPDEST DUP5 PUSH3 0x43C JUMP JUMPDEST PUSH1 0x20 DUP1 PUSH1 0x1F DUP4 GT PUSH1 0x1 DUP2 EQ PUSH3 0x4FB JUMPI PUSH1 0x0 DUP5 ISZERO PUSH3 0x4E2 JUMPI POP DUP6 DUP4 ADD MLOAD JUMPDEST PUSH1 0x0 NOT PUSH1 0x3 DUP7 SWAP1 SHL SHR NOT AND PUSH1 0x1 DUP6 SWAP1 SHL OR DUP6 SSTORE PUSH3 0x486 JUMP JUMPDEST PUSH1 0x0 DUP6 DUP2 MSTORE PUSH1 0x20 DUP2 KECCAK256 PUSH1 0x1F NOT DUP7 AND SWAP2 JUMPDEST DUP3 DUP2 LT ISZERO PUSH3 0x52C JUMPI DUP9 DUP7 ADD MLOAD DUP3 SSTORE SWAP5 DUP5 ADD SWAP5 PUSH1 0x1 SWAP1 SWAP2 ADD SWAP1 DUP5 ADD PUSH3 0x50B JUMP JUMPDEST POP DUP6 DUP3 LT ISZERO PUSH3 0x54B JUMPI DUP8 DUP6 ADD MLOAD PUSH1 0x0 NOT PUSH1 0x3 DUP9 SWAP1 SHL PUSH1 0xF8 AND SHR NOT AND DUP2 SSTORE JUMPDEST POP POP POP POP POP PUSH1 0x1 SWAP1 DUP2 SHL ADD SWAP1 SSTORE POP JUMP JUMPDEST DUP1 DUP3 ADD DUP1 DUP3 GT ISZERO PUSH3 0x57D JUMPI PUSH4 0x4E487B71 PUSH1 0xE0 SHL PUSH1 0x0 MSTORE PUSH1 0x11 PUSH1 0x4 MSTORE PUSH1 0x24 PUSH1 0x0 REVERT JUMPDEST SWAP3 SWAP2 POP POP JUMP JUMPDEST PUSH1 0x80 MLOAD PUSH1 0xA0 MLOAD PUSH1 0xC0 MLOAD PUSH2 0xA32 PUSH3 0x5D5 PUSH1 0x0 CODECOPY PUSH1 0x0 DUP2 DUP2 PUSH2 0x1A4 ADD MSTORE DUP2 DUP2 PUSH2 0x42F ADD MSTORE PUSH2 0x460 ADD MSTORE PUSH1 0x0 DUP2 DUP2 PUSH2 0x299 ADD MSTORE DUP2 DUP2 PUSH2 0x393 ADD MSTORE PUSH2 0x4C7 ADD MSTORE PUSH1 0x0 DUP2 DUP2 PUSH1 0xF4 ADD MSTORE PUSH2 0x1F9 ADD MSTORE PUSH2 0xA32 PUSH1 0x0 RETURN INVALID PUSH1 0x80 PUSH1 0x40 MSTORE CALLVALUE DUP1 ISZERO PUSH2 0x10 JUMPI PUSH1 0x0 DUP1 REVERT JUMPDEST POP PUSH1 0x4 CALLDATASIZE LT PUSH2 0xEA JUMPI PUSH1 0x0 CALLDATALOAD PUSH1 0xE0 SHR DUP1 PUSH4 0x70A08231 GT PUSH2 0x8C JUMPI DUP1 PUSH4 0xA2931FE8 GT PUSH2 0x66 JUMPI DUP1 PUSH4 0xA2931FE8 EQ PUSH2 0x235 JUMPI DUP1 PUSH4 0xA9059CBB EQ PUSH2 0x248 JUMPI DUP1 PUSH4 0xDD62ED3E EQ PUSH2 0x25B JUMPI DUP1 PUSH4 0xEE7A3B8E EQ PUSH2 0x294 JUMPI PUSH1 0x0 DUP1 REVERT JUMPDEST DUP1 PUSH4 0x70A08231 EQ PUSH2 0x1C6 JUMPI DUP1 PUSH4 0x817BC0CB EQ PUSH2 0x1EF JUMPI DUP1 PUSH4 0x95D89B41 EQ PUSH2 0x22D JUMPI PUSH1 0x0 DUP1 REVERT JUMPDEST DUP1 PUSH4 0x18160DDD GT PUSH2 0xC8 JUMPI DUP1 PUSH4 0x18160DDD EQ PUSH2 0x16B JUMPI DUP1 PUSH4 0x23B872DD EQ PUSH2 0x17D JUMPI DUP1 PUSH4 0x313CE567 EQ PUSH2 0x190 JUMPI DUP1 PUSH4 0x3A98EF39 EQ PUSH2 0x19F JUMPI PUSH1 0x0 DUP1 REVERT JUMPDEST DUP1 PUSH4 0x6D6549C EQ PUSH2 0xEF JUMPI DUP1 PUSH4 0x6FDDE03 EQ PUSH2 0x133 JUMPI DUP1 PUSH4 0x95EA7B3 EQ PUSH2 0x148 JUMPI JUMPDEST PUSH1 0x0 DUP1 REVERT JUMPDEST PUSH2 0x116 PUSH32 0x0 DUP2 JUMP JUMPDEST PUSH1 0x40 MLOAD PUSH1 0x1 PUSH1 0x1 PUSH1 0xA0 SHL SUB SWAP1 SWAP2 AND DUP2 MSTORE PUSH1 0x20 ADD JUMPDEST PUSH1 0x40 MLOAD DUP1 SWAP2 SUB SWAP1 RETURN JUMPDEST PUSH2 0x13B PUSH2 0x2BB JUMP JUMPDEST PUSH1 0x40 MLOAD PUSH2 0x12A SWAP2 SWAP1 PUSH2 0x842 JUMP JUMPDEST PUSH2 0x15B PUSH2 0x156 CALLDATASIZE PUSH1 0x4 PUSH2 0x8AC JUMP JUMPDEST PUSH2 0x34D JUMP JUMPDEST PUSH1 0x40 MLOAD SWAP1 ISZERO ISZERO DUP2 MSTORE PUSH1 0x20 ADD PUSH2 0x12A JUMP JUMPDEST PUSH1 0x2 SLOAD JUMPDEST PUSH1 0x40 MLOAD SWAP1 DUP2 MSTORE PUSH1 0x20 ADD PUSH2 0x12A JUMP JUMPDEST PUSH2 0x15B PUSH2 0x18B CALLDATASIZE PUSH1 0x4 PUSH2 0x8D6 JUMP JUMPDEST PUSH2 0x367 JUMP JUMPDEST PUSH1 0x40 MLOAD PUSH1 0x12 DUP2 MSTORE PUSH1 0x20 ADD PUSH2 0x12A JUMP JUMPDEST PUSH2 0x16F PUSH32 0x0 DUP2 JUMP JUMPDEST PUSH2 0x16F PUSH2 0x1D4 CALLDATASIZE PUSH1 0x4 PUSH2 0x912 JUMP JUMPDEST PUSH1 0x1 PUSH1 0x1 PUSH1 0xA0 SHL SUB AND PUSH1 0x0 SWAP1 DUP2 MSTORE PUSH1 0x20 DUP2 SWAP1 MSTORE PUSH1 0x40 SWAP1 KECCAK256 SLOAD SWAP1 JUMP JUMPDEST PUSH1 0x1 PUSH1 0x1 PUSH1 0xA0 SHL SUB PUSH32 0x0 AND PUSH1 0x0 SWAP1 DUP2 MSTORE PUSH1 0x20 DUP2 SWAP1 MSTORE PUSH1 0x40 SWAP1 KECCAK256 SLOAD PUSH2 0x16F JUMP JUMPDEST PUSH2 0x13B PUSH2 0x3F4 JUMP JUMPDEST PUSH2 0x16F PUSH2 0x243 CALLDATASIZE PUSH1 0x4 PUSH2 0x912 JUMP JUMPDEST PUSH2 0x403 JUMP JUMPDEST PUSH2 0x15B PUSH2 0x256 CALLDATASIZE PUSH1 0x4 PUSH2 0x8AC JUMP JUMPDEST PUSH2 0x49C JUMP JUMPDEST PUSH2 0x16F PUSH2 0x269 CALLDATASIZE PUSH1 0x4 PUSH2 0x92D JUMP JUMPDEST PUSH1 0x1 PUSH1 0x1 PUSH1 0xA0 SHL SUB SWAP2 DUP3 AND PUSH1 0x0 SWAP1 DUP2 MSTORE PUSH1 0x1 PUSH1 0x20 SWAP1 DUP2 MSTORE PUSH1 0x40 DUP1 DUP4 KECCAK256 SWAP4 SWAP1 SWAP5 AND DUP3 MSTORE SWAP2 SWAP1 SWAP2 MSTORE KECCAK256 SLOAD SWAP1 JUMP JUMPDEST PUSH2 0x16F PUSH32 0x0 DUP2 JUMP JUMPDEST PUSH1 0x60 PUSH1 0x3 DUP1 SLOAD PUSH2 0x2CA SWAP1 PUSH2 0x960 JUMP JUMPDEST DUP1 PUSH1 0x1F ADD PUSH1 0x20 DUP1 SWAP2 DIV MUL PUSH1 0x20 ADD PUSH1 0x40 MLOAD SWAP1 DUP2 ADD PUSH1 0x40 MSTORE DUP1 SWAP3 SWAP2 SWAP1 DUP2 DUP2 MSTORE PUSH1 0x20 ADD DUP3 DUP1 SLOAD PUSH2 0x2F6 SWAP1 PUSH2 0x960 JUMP JUMPDEST DUP1 ISZERO PUSH2 0x343 JUMPI DUP1 PUSH1 0x1F LT PUSH2 0x318 JUMPI PUSH2 0x100 DUP1 DUP4 SLOAD DIV MUL DUP4 MSTORE SWAP2 PUSH1 0x20 ADD SWAP2 PUSH2 0x343 JUMP JUMPDEST DUP3 ADD SWAP2 SWAP1 PUSH1 0x0 MSTORE PUSH1 0x20 PUSH1 0x0 KECCAK256 SWAP1 JUMPDEST DUP2 SLOAD DUP2 MSTORE SWAP1 PUSH1 0x1 ADD SWAP1 PUSH1 0x20 ADD DUP1 DUP4 GT PUSH2 0x326 JUMPI DUP3 SWAP1 SUB PUSH1 0x1F AND DUP3 ADD SWAP2 JUMPDEST POP POP POP POP POP SWAP1 POP SWAP1 JUMP JUMPDEST PUSH1 0x0 CALLER PUSH2 0x35B DUP2 DUP6 DUP6 PUSH2 0x526 JUMP JUMPDEST PUSH1 0x1 SWAP2 POP POP JUMPDEST SWAP3 SWAP2 POP POP JUMP JUMPDEST PUSH1 0x0 DUP1 PUSH2 0x375 DUP6 DUP6 DUP6 PUSH2 0x538 JUMP JUMPDEST SWAP1 POP DUP1 ISZERO PUSH2 0x3EC JUMPI DUP4 PUSH1 0x1 PUSH1 0x1 PUSH1 0xA0 SHL SUB AND DUP6 PUSH1 0x1 PUSH1 0x1 PUSH1 0xA0 SHL SUB AND PUSH32 0x0 PUSH32 0x78DC4AB325D618A4100F0B44DA2F25725CD94B780060F6B9E87065E9C0B12EBD DUP7 PUSH1 0x40 MLOAD PUSH2 0x3E3 SWAP2 DUP2 MSTORE PUSH1 0x20 ADD SWAP1 JUMP JUMPDEST PUSH1 0x40 MLOAD DUP1 SWAP2 SUB SWAP1 LOG4 JUMPDEST SWAP5 SWAP4 POP POP POP POP JUMP JUMPDEST PUSH1 0x60 PUSH1 0x4 DUP1 SLOAD PUSH2 0x2CA SWAP1 PUSH2 0x960 JUMP JUMPDEST PUSH1 0x1 PUSH1 0x1 PUSH1 0xA0 SHL SUB DUP2 AND PUSH1 0x0 SWAP1 DUP2 MSTORE PUSH1 0x20 DUP2 SWAP1 MSTORE PUSH1 0x40 DUP2 KECCAK256 SLOAD DUP1 PUSH1 0x0 SUB PUSH2 0x42D JUMPI POP PUSH1 0x0 SWAP3 SWAP2 POP POP JUMP JUMPDEST PUSH32 0x0 PUSH1 0x0 SUB PUSH2 0x45E JUMPI POP PUSH1 0x0 SWAP3 SWAP2 POP POP JUMP JUMPDEST PUSH32 0x0 PUSH2 0x48B DUP3 PUSH2 0x2710 PUSH2 0x9B0 JUMP JUMPDEST PUSH2 0x495 SWAP2 SWAP1 PUSH2 0x9C7 JUMP JUMPDEST SWAP4 SWAP3 POP POP POP JUMP JUMPDEST PUSH1 0x0 DUP1 PUSH2 0x4A9 DUP5 DUP5 PUSH2 0x55C JUMP JUMPDEST SWAP1 POP DUP1 ISZERO PUSH2 0x495 JUMPI DUP4 PUSH1 0x1 PUSH1 0x1 PUSH1 0xA0 SHL SUB AND CALLER PUSH1 0x1 PUSH1 0x1 PUSH1 0xA0 SHL SUB AND PUSH32 0x0 PUSH32 0x78DC4AB325D618A4100F0B44DA2F25725CD94B780060F6B9E87065E9C0B12EBD DUP7 PUSH1 0x40 MLOAD PUSH2 0x517 SWAP2 DUP2 MSTORE PUSH1 0x20 ADD SWAP1 JUMP JUMPDEST PUSH1 0x40 MLOAD DUP1 SWAP2 SUB SWAP1 LOG4 SWAP4 SWAP3 POP POP POP JUMP JUMPDEST PUSH2 0x533 DUP4 DUP4 DUP4 PUSH1 0x1 PUSH2 0x56A JUMP JUMPDEST POP POP POP JUMP JUMPDEST PUSH1 0x0 CALLER PUSH2 0x546 DUP6 DUP3 DUP6 PUSH2 0x645 JUMP JUMPDEST PUSH2 0x551 DUP6 DUP6 DUP6 PUSH2 0x6BE JUMP JUMPDEST POP PUSH1 0x1 SWAP5 SWAP4 POP POP POP POP JUMP JUMPDEST PUSH1 0x0 CALLER PUSH2 0x35B DUP2 DUP6 DUP6 PUSH2 0x6BE JUMP JUMPDEST PUSH1 0x1 PUSH1 0x1 PUSH1 0xA0 SHL SUB DUP5 AND PUSH2 0x599 JUMPI PUSH1 0x40 MLOAD PUSH4 0xE602DF05 PUSH1 0xE0 SHL DUP2 MSTORE PUSH1 0x0 PUSH1 0x4 DUP3 ADD MSTORE PUSH1 0x24 ADD JUMPDEST PUSH1 0x40 MLOAD DUP1 SWAP2 SUB SWAP1 REVERT JUMPDEST PUSH1 0x1 PUSH1 0x1 PUSH1 0xA0 SHL SUB DUP4 AND PUSH2 0x5C3 JUMPI PUSH1 0x40 MLOAD PUSH4 0x4A1406B1 PUSH1 0xE1 SHL DUP2 MSTORE PUSH1 0x0 PUSH1 0x4 DUP3 ADD MSTORE PUSH1 0x24 ADD PUSH2 0x590 JUMP JUMPDEST PUSH1 0x1 PUSH1 0x1 PUSH1 0xA0 SHL SUB DUP1 DUP6 AND PUSH1 0x0 SWAP1 DUP2 MSTORE PUSH1 0x1 PUSH1 0x20 SWAP1 DUP2 MSTORE PUSH1 0x40 DUP1 DUP4 KECCAK256 SWAP4 DUP8 AND DUP4 MSTORE SWAP3 SWAP1 MSTORE KECCAK256 DUP3 SWAP1 SSTORE DUP1 ISZERO PUSH2 0x63F JUMPI DUP3 PUSH1 0x1 PUSH1 0x1 PUSH1 0xA0 SHL SUB AND DUP5 PUSH1 0x1 PUSH1 0x1 PUSH1 0xA0 SHL SUB AND PUSH32 0x8C5BE1E5EBEC7D5BD14F71427D1E84F3DD0314C0F7B2291E5B200AC8C7C3B925 DUP5 PUSH1 0x40 MLOAD PUSH2 0x636 SWAP2 DUP2 MSTORE PUSH1 0x20 ADD SWAP1 JUMP JUMPDEST PUSH1 0x40 MLOAD DUP1 SWAP2 SUB SWAP1 LOG3 JUMPDEST POP POP POP POP JUMP JUMPDEST PUSH1 0x1 PUSH1 0x1 PUSH1 0xA0 SHL SUB DUP4 DUP2 AND PUSH1 0x0 SWAP1 DUP2 MSTORE PUSH1 0x1 PUSH1 0x20 SWAP1 DUP2 MSTORE PUSH1 0x40 DUP1 DUP4 KECCAK256 SWAP4 DUP7 AND DUP4 MSTORE SWAP3 SWAP1 MSTORE KECCAK256 SLOAD PUSH1 0x0 NOT DUP2 LT ISZERO PUSH2 0x63F JUMPI DUP2 DUP2 LT ISZERO PUSH2 0x6AF JUMPI PUSH1 0x40 MLOAD PUSH4 0x7DC7A0D9 PUSH1 0xE1 SHL DUP2 MSTORE PUSH1 0x1 PUSH1 0x1 PUSH1 0xA0 SHL SUB DUP5 AND PUSH1 0x4 DUP3 ADD MSTORE PUSH1 0x24 DUP2 ADD DUP3 SWAP1 MSTORE PUSH1 0x44 DUP2 ADD DUP4 SWAP1 MSTORE PUSH1 0x64 ADD PUSH2 0x590 JUMP JUMPDEST PUSH2 0x63F DUP5 DUP5 DUP5 DUP5 SUB PUSH1 0x0 PUSH2 0x56A JUMP JUMPDEST PUSH1 0x1 PUSH1 0x1 PUSH1 0xA0 SHL SUB DUP4 AND PUSH2 0x6E8 JUMPI PUSH1 0x40 MLOAD PUSH4 0x4B637E8F PUSH1 0xE1 SHL DUP2 MSTORE PUSH1 0x0 PUSH1 0x4 DUP3 ADD MSTORE PUSH1 0x24 ADD PUSH2 0x590 JUMP JUMPDEST PUSH1 0x1 PUSH1 0x1 PUSH1 0xA0 SHL SUB DUP3 AND PUSH2 0x712 JUMPI PUSH1 0x40 MLOAD PUSH4 0xEC442F05 PUSH1 0xE0 SHL DUP2 MSTORE PUSH1 0x0 PUSH1 0x4 DUP3 ADD MSTORE PUSH1 0x24 ADD PUSH2 0x590 JUMP JUMPDEST PUSH2 0x533 DUP4 DUP4 DUP4 PUSH1 0x1 PUSH1 0x1 PUSH1 0xA0 SHL SUB DUP4 AND PUSH2 0x743 JUMPI DUP1 PUSH1 0x2 PUSH1 0x0 DUP3 DUP3 SLOAD PUSH2 0x738 SWAP2 SWAP1 PUSH2 0x9E9 JUMP JUMPDEST SWAP1 SWAP2 SSTORE POP PUSH2 0x7B5 SWAP1 POP JUMP JUMPDEST PUSH1 0x1 PUSH1 0x1 PUSH1 0xA0 SHL SUB DUP4 AND PUSH1 0x0 SWAP1 DUP2 MSTORE PUSH1 0x20 DUP2 SWAP1 MSTORE PUSH1 0x40 SWAP1 KECCAK256 SLOAD DUP2 DUP2 LT ISZERO PUSH2 0x796 JUMPI PUSH1 0x40 MLOAD PUSH4 0x391434E3 PUSH1 0xE2 SHL DUP2 MSTORE PUSH1 0x1 PUSH1 0x1 PUSH1 0xA0 SHL SUB DUP6 AND PUSH1 0x4 DUP3 ADD MSTORE PUSH1 0x24 DUP2 ADD DUP3 SWAP1 MSTORE PUSH1 0x44 DUP2 ADD DUP4 SWAP1 MSTORE PUSH1 0x64 ADD PUSH2 0x590 JUMP JUMPDEST PUSH1 0x1 PUSH1 0x1 PUSH1 0xA0 SHL SUB DUP5 AND PUSH1 0x0 SWAP1 DUP2 MSTORE PUSH1 0x20 DUP2 SWAP1 MSTORE PUSH1 0x40 SWAP1 KECCAK256 SWAP1 DUP3 SWAP1 SUB SWAP1 SSTORE JUMPDEST PUSH1 0x1 PUSH1 0x1 PUSH1 0xA0 SHL SUB DUP3 AND PUSH2 0x7D1 JUMPI PUSH1 0x2 DUP1 SLOAD DUP3 SWAP1 SUB SWAP1 SSTORE PUSH2 0x7F0 JUMP JUMPDEST PUSH1 0x1 PUSH1 0x1 PUSH1 0xA0 SHL SUB DUP3 AND PUSH1 0x0 SWAP1 DUP2 MSTORE PUSH1 0x20 DUP2 SWAP1 MSTORE PUSH1 0x40 SWAP1 KECCAK256 DUP1 SLOAD DUP3 ADD SWAP1 SSTORE JUMPDEST DUP2 PUSH1 0x1 PUSH1 0x1 PUSH1 0xA0 SHL SUB AND DUP4 PUSH1 0x1 PUSH1 0x1 PUSH1 0xA0 SHL SUB AND PUSH32 0xDDF252AD1BE2C89B69C2B068FC378DAA952BA7F163C4A11628F55A4DF523B3EF DUP4 PUSH1 0x40 MLOAD PUSH2 0x835 SWAP2 DUP2 MSTORE PUSH1 0x20 ADD SWAP1 JUMP JUMPDEST PUSH1 0x40 MLOAD DUP1 SWAP2 SUB SWAP1 LOG3 POP POP POP JUMP JUMPDEST PUSH1 0x0 PUSH1 0x20 DUP1 DUP4 MSTORE DUP4 MLOAD DUP1 DUP3 DUP6 ADD MSTORE PUSH1 0x0 JUMPDEST DUP2 DUP2 LT ISZERO PUSH2 0x86F JUMPI DUP6 DUP2 ADD DUP4 ADD MLOAD DUP6 DUP3 ADD PUSH1 0x40 ADD MSTORE DUP3 ADD PUSH2 0x853 JUMP JUMPDEST POP PUSH1 0x0 PUSH1 0x40 DUP3 DUP7 ADD ADD MSTORE PUSH1 0x40 PUSH1 0x1F NOT PUSH1 0x1F DUP4 ADD AND DUP6 ADD ADD SWAP3 POP POP POP SWAP3 SWAP2 POP POP JUMP JUMPDEST DUP1 CALLDATALOAD PUSH1 0x1 PUSH1 0x1 PUSH1 0xA0 SHL SUB DUP2 AND DUP2 EQ PUSH2 0x8A7 JUMPI PUSH1 0x0 DUP1 REVERT JUMPDEST SWAP2 SWAP1 POP JUMP JUMPDEST PUSH1 0x0 DUP1 PUSH1 0x40 DUP4 DUP6 SUB SLT ISZERO PUSH2 0x8BF JUMPI PUSH1 0x0 DUP1 REVERT JUMPDEST PUSH2 0x8C8 DUP4 PUSH2 0x890 JUMP JUMPDEST SWAP5 PUSH1 0x20 SWAP4 SWAP1 SWAP4 ADD CALLDATALOAD SWAP4 POP POP POP JUMP JUMPDEST PUSH1 0x0 DUP1 PUSH1 0x0 PUSH1 0x60 DUP5 DUP7 SUB SLT ISZERO PUSH2 0x8EB JUMPI PUSH1 0x0 DUP1 REVERT JUMPDEST PUSH2 0x8F4 DUP5 PUSH2 0x890 JUMP JUMPDEST SWAP3 POP PUSH2 0x902 PUSH1 0x20 DUP6 ADD PUSH2 0x890 JUMP JUMPDEST SWAP2 POP PUSH1 0x40 DUP5 ADD CALLDATALOAD SWAP1 POP SWAP3 POP SWAP3 POP SWAP3 JUMP JUMPDEST PUSH1 0x0 PUSH1 0x20 DUP3 DUP5 SUB SLT ISZERO PUSH2 0x924 JUMPI PUSH1 0x0 DUP1 REVERT JUMPDEST PUSH2 0x495 DUP3 PUSH2 0x890 JUMP JUMPDEST PUSH1 0x0 DUP1 PUSH1 0x40 DUP4 DUP6 SUB SLT ISZERO PUSH2 0x940 JUMPI PUSH1 0x0 DUP1 REVERT JUMPDEST PUSH2 0x949 DUP4 PUSH2 0x890 JUMP JUMPDEST SWAP2 POP PUSH2 0x957 PUSH1 0x20 DUP5 ADD PUSH2 0x890 JUMP JUMPDEST SWAP1 POP SWAP3 POP SWAP3 SWAP1 POP JUMP JUMPDEST PUSH1 0x1 DUP2 DUP2 SHR SWAP1 DUP3 AND DUP1 PUSH2 0x974 JUMPI PUSH1 0x7F DUP3 AND SWAP2 POP JUMPDEST PUSH1 0x20 DUP3 LT DUP2 SUB PUSH2 0x994 JUMPI PUSH4 0x4E487B71 PUSH1 0xE0 SHL PUSH1 0x0 MSTORE PUSH1 0x22 PUSH1 0x4 MSTORE PUSH1 0x24 PUSH1 0x0 REVERT JUMPDEST POP SWAP2 SWAP1 POP JUMP JUMPDEST PUSH4 0x4E487B71 PUSH1 0xE0 SHL PUSH1 0x0 MSTORE PUSH1 0x11 PUSH1 0x4 MSTORE PUSH1 0x24 PUSH1 0x0 REVERT JUMPDEST DUP1 DUP3 MUL DUP2 ISZERO DUP3 DUP3 DIV DUP5 EQ OR PUSH2 0x361 JUMPI PUSH2 0x361 PUSH2 0x99A JUMP JUMPDEST PUSH1 0x0 DUP3 PUSH2 0x9E4 JUMPI PUSH4 0x4E487B71 PUSH1 0xE0 SHL PUSH1 0x0 MSTORE PUSH1 0x12 PUSH1 0x4 MSTORE PUSH1 0x24 PUSH1 0x0 REVERT JUMPDEST POP DIV SWAP1 JUMP JUMPDEST DUP1 DUP3 ADD DUP1 DUP3 GT ISZERO PUSH2 0x361 JUMPI PUSH2 0x361 PUSH2 0x99A JUMP INVALID LOG2 PUSH5 0x6970667358 0x22 SLT KECCAK256 MUL 0xD7 0xCD 0xEB SAR 0xBD 0xF6 0xD6 LOG2 PC 0xB9 PUSH19 0x1E8F08F949CA6D0EBD00D2C573172DD7FF8B8E 0xC9 PUSH5 0x736F6C6343 STOP ADDMOD EQ STOP CALLER LOG2 PUSH5 0x6970667358 0x22 SLT KECCAK256 PUSH28 0x45260F3ED3DDA84559C9F115B2A24327DC329ACE16CAEB3680536B73 0xAB AND PUSH9 0x64736F6C6343000814 STOP CALLER "},"methodIdentifiers":{"buyShares(uint256,uint256)":"beebc5da","claimDividends(uint256)":"bd7047c4","claimedDividends(uint256,address)":"cff63567","depositRent(uint256)":"f6e96ced","getInvestorInfo(uint256,address)":"6ea456ac","getPendingDividends(uint256,address)":"b45ebee3","getProperty(uint256)":"32665ffb","getTotalProperties()":"17aaf5ed","linkPropertyNFT(uint256,uint256)":"335756bb","owner()":"8da5cb5b","properties(uint256)":"f7b10808","propertyCounter()":"d090e47e","propertyNFT()":"37f76838","registerAndFractionalizeProperty(string,uint256,uint256)":"3d7f8ee6","transferShares(uint256,address,uint256)":"84b9a6e6"}}}}}