{
  "_format": "hh-sol-artifact-1",
  "contractName": "PropertyNFT",
  "sourceName": "contracts/PropertyNFT.sol",
  "abi": [
    {
      "inputs": [],
      "stateMutability": "nonpayable",
      "type": "constructor"
    },
    {
      "inputs": [
        {
          "internalType": "address",
          "name": "sender",
          "type": "address"
        },
        {
          "internalType": "uint256",
          "name": "tokenId",
          "type": "uint256"
        },
        {
          "internalType": "address",
          "name": "owner",
          "type": "address"
        }
      ],
      "name": "ERC721IncorrectOwner",
      "type": "error"
    },
    {
      "inputs": [
        {
          "internalType": "address",
          "name": "operator",
          "type": "address"
        },
        {
          "internalType": "uint256",
          "name": "tokenId",
          "type": "uint256"
        }
      ],
      "name": "ERC721InsufficientApproval",
      "type": "error"
    },
    {
      "inputs": [
        {
          "internalType": "address",
          "name": "approver",
          "type": "address"
        }
      ],
      "name": "ERC721InvalidApprover",
      "type": "error"
    },
    {
      "inputs": [
        {
          "internalType": "address",
          "name": "operator",
          "type": "address"
        }
      ],
      "name": "ERC721InvalidOperator",
      "type": "error"
    },
    {
      "inputs": [
        {
          "internalType": "address",
          "name": "owner",
          "type": "address"
        }
      ],
      "name": "ERC721InvalidOwner",
      "type": "error"
    },
    {
      "inputs": [
        {
          "internalType": "address",
          "name": "receiver",
          "type": "address"
        }
      ],
      "name": "ERC721InvalidReceiver",
      "type": "error"
    },
    {
      "inputs": [
        {
          "internalType": "address",
          "name": "sender",
          "type": "address"
        }
      ],
      "name": "ERC721InvalidSender",
      "type": "error"
    },
    {
      "inputs": [
        {
          "internalType": "uint256",
          "name": "tokenId",
          "type": "uint256"
        }
      ],
      "name": "ERC721NonexistentToken",
      "type": "error"
    },
    {
      "inputs": [
        {
          "internalType": "address",
          "name": "owner",
          "type": "address"
        }
      ],
      "name": "OwnableInvalidOwner",
      "type": "error"
    },
    {
      "inputs": [
        {
          "internalType": "address",
          "name": "account",
          "type": "address"
        }
      ],
      "name": "OwnableUnauthorizedAccount",
      "type": "error"
    },
    {
      "anonymous": false,
      "inputs": [
        {
          "indexed": true,
          "internalType": "address",
          "name": "owner",
          "type": "address"
        },
        {
          "indexed": true,
          "internalType": "address",
          "name": "approved",
          "type": "address"
        },
        {
          "indexed": true,
          "internalType": "uint256",
          "name": "tokenId",
          "type": "uint256"
        }
      ],
      "name": "Approval",
      "type": "event"
    },
    {
      "anonymous": false,
      "inputs": [
        {
          "indexed": true,
          "internalType": "address",
          "name": "owner",
          "type": "address"
        },
        {
          "indexed": true,
          "internalType": "address",
          "name": "operator",
          "type": "address"
        },
        {
          "indexed": false,
          "internalType": "bool",
          "name": "approved",
          "type": "bool"
        }
      ],
      "name": "ApprovalForAll",
      "type": "event"
    },
    {
      "anonymous": false,
      "inputs": [
        {
          "indexed": true,
          "internalType": "address",
          "name": "previousOwner",
          "type": "address"
        },
        {
          "indexed": true,
          "internalType": "address",
          "name": "newOwner",
          "type": "address"
        }
      ],
      "name": "OwnershipTransferred",
      "type": "event"
    },
    {
      "anonymous": false,
      "inputs": [
        {
          "indexed": true,
          "internalType": "uint256",
          "name": "propertyId",
          "type": "uint256"
        },
        {
          "indexed": true,
          "internalType": "uint256",
          "name": "tokenId",
          "type": "uint256"
        },
        {
          "indexed": false,
          "internalType": "string",
          "name": "location",
          "type": "string"
        },
        {
          "indexed": false,
          "internalType": "uint256",
          "name": "value",
          "type": "uint256"
        }
      ],
      "name": "PropertyRegistered",
      "type": "event"
    },
    {
      "anonymous": false,
      "inputs": [
        {
          "indexed": true,
          "internalType": "address",
          "name": "from",
          "type": "address"
        },
        {
          "indexed": true,
          "internalType": "address",
          "name": "to",
          "type": "address"
        },
        {
          "indexed": true,
          "internalType": "uint256",
          "name": "tokenId",
          "type": "uint256"
        }
      ],
      "name": "Transfer",
      "type": "event"
    },
    {
      "inputs": [
        {
          "internalType": "address",
          "name": "to",
          "type": "address"
        },
        {
          "internalType": "uint256",
          "name": "tokenId",
          "type": "uint256"
        }
      ],
      "name": "approve",
      "outputs": [],
      "stateMutability": "nonpayable",
      "type": "function"
    },
    {
      "inputs": [
        {
          "internalType": "address",
          "name": "owner",
          "type": "address"
        }
      ],
      "name": "balanceOf",
      "outputs": [
        {
          "internalType": "uint256",
          "name": "",
          "type": "uint256"
        }
      ],
      "stateMutability": "view",
      "type": "function"
    },
    {
      "inputs": [
        {
          "internalType": "uint256",
          "name": "tokenId",
          "type": "uint256"
        }
      ],
      "name": "getApproved",
      "outputs": [
        {
          "internalType": "address",
          "name": "",
          "type": "address"
        }
      ],
      "stateMutability": "view",
      "type": "function"
    },
    {
      "inputs": [
        {
          "internalType": "uint256",
          "name": "propertyId",
          "type": "uint256"
        }
      ],
      "name": "getProperty",
      "outputs": [
        {
          "components": [
            {
              "internalType": "uint256",
              "name": "propertyId",
              "type": "uint256"
            },
            {
              "internalType": "string",
              "name": "location",
              "type": "string"
            },
            {
              "internalType": "uint256",
              "name": "value",
              "type": "uint256"
            },
            {
              "internalType": "uint256",
              "name": "tokenId",
              "type": "uint256"
            },
            {
              "internalType": "bool",
              "name": "exists",
              "type": "bool"
            }
          ],
          "internalType": "struct PropertyNFT.PropertyData",
          "name": "",
          "type": "tuple"
        }
      ],
      "stateMutability": "view",
      "type": "function"
    },
    {
      "inputs": [
        {
          "internalType": "uint256",
          "name": "tokenId",
          "type": "uint256"
        }
      ],
      "name": "getPropertyByTokenId",
      "outputs": [
        {
          "components": [
            {
              "internalType": "uint256",
              "name": "propertyId",
              "type": "uint256"
            },
            {
              "internalType": "string",
              "name": "location",
              "type": "string"
            },
            {
              "internalType": "uint256",
              "name": "value",
              "type": "uint256"
            },
            {
              "internalType": "uint256",
              "name": "tokenId",
              "type": "uint256"
            },
            {
              "internalType": "bool",
              "name": "exists",
              "type": "bool"
            }
          ],
          "internalType": "struct PropertyNFT.PropertyData",
          "name": "",
          "type": "tuple"
        }
      ],
      "stateMutability": "view",
      "type": "function"
    },
    {
      "inputs": [],
      "name": "getTotalProperties",
      "outputs": [
        {
          "internalType": "uint256",
          "name": "",
          "type": "uint256"
        }
      ],
      "stateMutability": "view",
      "type": "function"
    },
    {
      "inputs": [
        {
          "internalType": "address",
          "name": "owner",
          "type": "address"
        },
        {
          "internalType": "address",
          "name": "operator",
          "type": "address"
        }
      ],
      "name": "isApprovedForAll",
      "outputs": [
        {
          "internalType": "bool",
          "name": "",
          "type": "bool"
        }
      ],
      "stateMutability": "view",
      "type": "function"
    },
    {
      "inputs": [],
      "name": "name",
      "outputs": [
        {
          "internalType": "string",
          "name": "",
          "type": "string"
        }
      ],
      "stateMutability": "view",
      "type": "function"
    },
    {
      "inputs": [],
      "name": "owner",
      "outputs": [
        {
          "internalType": "address",
          "name": "",
          "type": "address"
        }
      ],
      "stateMutability": "view",
      "type": "function"
    },
    {
      "inputs": [
        {
          "internalType": "uint256",
          "name": "tokenId",
          "type": "uint256"
        }
      ],
      "name": "ownerOf",
      "outputs": [
        {
          "internalType": "address",
          "name": "",
          "type": "address"
        }
      ],
      "stateMutability": "view",
      "type": "function"
    },
    {
      "inputs": [
        {
          "internalType": "uint256",
          "name": "",
          "type": "uint256"
        }
      ],
      "name": "properties",
      "outputs": [
        {
          "internalType": "uint256",
          "name": "propertyId",
          "type": "uint256"
        },
        {
          "internalType": "string",
          "name": "location",
          "type": "string"
        },
        {
          "internalType": "uint256",
          "name": "value",
          "type": "uint256"
        },
        {
          "internalType": "uint256",
          "name": "tokenId",
          "type": "uint256"
        },
        {
          "internalType": "bool",
          "name": "exists",
          "type": "bool"
        }
      ],
      "stateMutability": "view",
      "type": "function"
    },
    {
      "inputs": [
        {
          "internalType": "uint256",
          "name": "propertyId",
          "type": "uint256"
        }
      ],
      "name": "propertyExists",
      "outputs": [
        {
          "internalType": "bool",
          "name": "",
          "type": "bool"
        }
      ],
      "stateMutability": "view",
      "type": "function"
    },
    {
      "inputs": [
        {
          "internalType": "string",
          "name": "location",
          "type": "string"
        },
        {
          "internalType": "uint256",
          "name": "value",
          "type": "uint256"
        }
      ],
      "name": "registerProperty",
      "outputs": [
        {
          "internalType": "uint256",
          "name": "",
          "type": "uint256"
        }
      ],
      "stateMutability": "nonpayable",
      "type": "function"
    },
    {
      "inputs": [],
      "name": "renounceOwnership",
      "outputs": [],
      "stateMutability": "nonpayable",
      "type": "function"
    },
    {
      "inputs": [
        {
          "internalType": "address",
          "name": "from",
          "type": "address"
        },
        {
          "internalType": "address",
          "name": "to",
          "type": "address"
        },
        {
          "internalType": "uint256",
          "name": "tokenId",
          "type": "uint256"
        }
      ],
      "name": "safeTransferFrom",
      "outputs": [],
      "stateMutability": "nonpayable",
      "type": "function"
    },
    {
      "inputs": [
        {
          "internalType": "address",
          "name": "from",
          "type": "address"
        },
        {
          "internalType": "address",
          "name": "to",
          "type": "address"
        },
        {
          "internalType": "uint256",
          "name": "tokenId",
          "type": "uint256"
        },
        {
          "internalType": "bytes",
          "name": "data",
          "type": "bytes"
        }
      ],
      "name": "safeTransferFrom",
      "outputs": [],
      "stateMutability": "nonpayable",
      "type": "function"
    },
    {
      "inputs": [
        {
          "internalType": "address",
          "name": "operator",
          "type": "address"
        },
        {
          "internalType": "bool",
          "name": "approved",
          "type": "bool"
        }
      ],
      "name": "setApprovalForAll",
      "outputs": [],
      "stateMutability": "nonpayable",
      "type": "function"
    },
    {
      "inputs": [
        {
          "internalType": "bytes4",
          "name": "interfaceId",
          "type": "bytes4"
        }
      ],
      "name": "supportsInterface",
      "outputs": [
        {
          "internalType": "bool",
          "name": "",
          "type": "bool"
        }
      ],
      "stateMutability": "view",
      "type": "function"
    },
    {
      "inputs": [],
      "name": "symbol",
      "outputs": [
        {
          "internalType": "string",
          "name": "",
          "type": "string"
        }
      ],
      "stateMutability": "view",
      "type": "function"
    },
    {
      "inputs": [
        {
          "internalType": "uint256",
          "name": "",
          "type": "uint256"
        }
      ],
      "name": "tokenToProperty",
      "outputs": [
        {
          "internalType": "uint256",
          "name": "",
          "type": "uint256"
        }
      ],
      "stateMutability": "view",
      "type": "function"
    },
    {
      "inputs": [
        {
          "internalType": "uint256",
          "name": "tokenId",
          "type": "uint256"
        }
      ],
      "name": "tokenURI",
      "outputs": [
        {
          "internalType": "string",
          "name": "",
          "type": "string"
        }
      ],
      "stateMutability": "view",
      "type": "function"
    },
    {
      "inputs": [
        {
          "internalType": "address",
          "name": "from",
          "type": "address"
        },
        {
          "internalType": "address",
          "name": "to",
          "type": "address"
        },
        {
          "internalType": "uint256",
          "name": "tokenId",
          "type": "uint256"
        }
      ],
      "name": "transferFrom",
      "outputs": [],
      "stateMutability": "nonpayable",
      "type": "function"
    },
    {
      "inputs": [
        {
          "internalType": "address",
          "name": "newOwner",
          "type": "address"
        }
      ],
      "name": "transferOwnership",
      "outputs": [],
      "stateMutability": "nonpayable",
      "type": "function"
    }
  ],
  "bytecode": "0x60806040523480156200001157600080fd5b50336040518060400160405280601081526020016f546f6b656e49542050726f706572747960801b8152506040518060400160405280600381526020016205449560ec1b8152508160009081620000699190620001bd565b506001620000788282620001bd565b5050506001600160a01b038116620000aa57604051631e4fbdf760e01b81526000600482015260240160405180910390fd5b620000b581620000c6565b506000600781905560085562000289565b600680546001600160a01b038381166001600160a01b0319831681179093556040519116919082907f8be0079c531659141344cd1fd0a4f28419497f9722a3daafe3b4186f6b6457e090600090a35050565b634e487b7160e01b600052604160045260246000fd5b600181811c908216806200014357607f821691505b6020821081036200016457634e487b7160e01b600052602260045260246000fd5b50919050565b601f821115620001b857600081815260208120601f850160051c81016020861015620001935750805b601f850160051c820191505b81811015620001b4578281556001016200019f565b5050505b505050565b81516001600160401b03811115620001d957620001d962000118565b620001f181620001ea84546200012e565b846200016a565b602080601f831160018114620002295760008415620002105750858301515b600019600386901b1c1916600185901b178555620001b4565b600085815260208120601f198616915b828110156200025a5788860151825594840194600190910190840162000239565b5085821015620002795787850151600019600388901b60f8161c191681555b5050505050600190811b01905550565b61195d80620002996000396000f3fe608060405234801561001057600080fd5b506004361061014d5760003560e01c80636352211e116100c3578063a22cb4651161007c578063a22cb465146102da578063b88d4fde146102ed578063c87b56dd14610300578063e985e9c514610313578063f2fde38b14610326578063f7b108081461033957600080fd5b80636352211e1461028057806370a0823114610293578063715018a6146102a65780637c539718146102ae5780638da5cb5b146102c157806395d89b41146102d257600080fd5b806323b872dd1161011557806323b872dd146101e157806332665ffb146101f457806342842e0e1461021457806344c89cc61461022757806347c7c5401461023a5780634a1647321461025a57600080fd5b806301ffc9a71461015257806306fdde031461017a578063081812fc1461018f578063095ea7b3146101ba57806317aaf5ed146101cf575b600080fd5b610165610160366004611385565b61035d565b60405190151581526020015b60405180910390f35b6101826103af565b60405161017191906113f2565b6101a261019d366004611405565b610441565b6040516001600160a01b039091168152602001610171565b6101cd6101c836600461143a565b61046a565b005b6007545b604051908152602001610171565b6101cd6101ef366004611464565b610479565b610207610202366004611405565b610509565b60405161017191906114a0565b6101cd610222366004611464565b610682565b610207610235366004611405565b6106a2565b6101d3610248366004611405565b600a6020526000908152604090205481565b610165610268366004611405565b60009081526009602052604090206004015460ff1690565b6101a261028e366004611405565b610828565b6101d36102a13660046114f2565b610833565b6101cd61087b565b6101d36102bc366004611599565b61088f565b6006546001600160a01b03166101a2565b610182610a46565b6101cd6102e83660046115f2565b610a55565b6101cd6102fb36600461162e565b610a60565b61018261030e366004611405565b610a78565b6101656103213660046116aa565b610aed565b6101cd6103343660046114f2565b610b1b565b61034c610347366004611405565b610b59565b6040516101719594939291906116dd565b60006001600160e01b031982166380ac58cd60e01b148061038e57506001600160e01b03198216635b5e139f60e01b145b806103a957506301ffc9a760e01b6001600160e01b03198316145b92915050565b6060600080546103be90611715565b80601f01602080910402602001604051908101604052809291908181526020018280546103ea90611715565b80156104375780601f1061040c57610100808354040283529160200191610437565b820191906000526020600020905b81548152906001019060200180831161041a57829003601f168201915b5050505050905090565b600061044c82610c15565b506000828152600460205260409020546001600160a01b03166103a9565b610475828233610c4e565b5050565b6001600160a01b0382166104a857604051633250574960e11b8152600060048201526024015b60405180910390fd5b60006104b5838333610c5b565b9050836001600160a01b0316816001600160a01b031614610503576040516364283d7b60e01b81526001600160a01b038086166004830152602482018490528216604482015260640161049f565b50505050565b61053d6040518060a00160405280600081526020016060815260200160008152602001600081526020016000151581525090565b60008281526009602052604090206004015460ff1661059e5760405162461bcd60e51b815260206004820152601760248201527f50726f706572747920646f6573206e6f74206578697374000000000000000000604482015260640161049f565b600960008381526020019081526020016000206040518060a0016040529081600082015481526020016001820180546105d690611715565b80601f016020809104026020016040519081016040528092919081815260200182805461060290611715565b801561064f5780601f106106245761010080835404028352916020019161064f565b820191906000526020600020905b81548152906001019060200180831161063257829003601f168201915b5050509183525050600282015460208201526003820154604082015260049091015460ff16151560609091015292915050565b61069d83838360405180602001604052806000815250610a60565b505050565b6106d66040518060a00160405280600081526020016060815260200160008152602001600081526020016000151581525090565b6000828152600a6020526040812054908190036107435760405162461bcd60e51b815260206004820152602560248201527f546f6b656e20646f6573206e6f7420726570726573656e7420616e792070726f604482015264706572747960d81b606482015260840161049f565b600960008281526020019081526020016000206040518060a00160405290816000820154815260200160018201805461077b90611715565b80601f01602080910402602001604051908101604052809291908181526020018280546107a790611715565b80156107f45780601f106107c9576101008083540402835291602001916107f4565b820191906000526020600020905b8154815290600101906020018083116107d757829003601f168201915b5050509183525050600282015460208201526003820154604082015260049091015460ff1615156060909101529392505050565b60006103a982610c15565b60006001600160a01b03821661085f576040516322718ad960e21b81526000600482015260240161049f565b506001600160a01b031660009081526003602052604090205490565b610883610d54565b61088d6000610d81565b565b6000610899610d54565b60008351116108ea5760405162461bcd60e51b815260206004820152601860248201527f4c6f636174696f6e2063616e6e6f7420626520656d7074790000000000000000604482015260640161049f565b6000821161093a5760405162461bcd60e51b815260206004820152601f60248201527f56616c7565206d7573742062652067726561746572207468616e207a65726f00604482015260640161049f565b6007805490600061094a8361174f565b90915550506008805490600061095f8361174f565b90915550506007546008546040805160a081018252838152602080820188815282840188905260608301859052600160808401819052600087815260099093529390912082518155905191929091908201906109bb90826117bc565b506040828101516002830155606083015160038301556080909201516004909101805460ff19169115159190911790556000828152600a60205220829055610a033382610dd3565b80827fce02163751a3c04eeeed64c1d1910505ffef9f916109051af56f0b84dcec5c548787604051610a3692919061187c565b60405180910390a3509392505050565b6060600180546103be90611715565b610475338383610ded565b610a6b848484610479565b6105033385858585610e8c565b6060610a8382610c15565b506000610a9b60408051602081019091526000815290565b90506000815111610abb5760405180602001604052806000815250610ae6565b80610ac584610fb7565b604051602001610ad692919061189e565b6040516020818303038152906040525b9392505050565b6001600160a01b03918216600090815260056020908152604080832093909416825291909152205460ff1690565b610b23610d54565b6001600160a01b038116610b4d57604051631e4fbdf760e01b81526000600482015260240161049f565b610b5681610d81565b50565b60096020526000908152604090208054600182018054919291610b7b90611715565b80601f0160208091040260200160405190810160405280929190818152602001828054610ba790611715565b8015610bf45780601f10610bc957610100808354040283529160200191610bf4565b820191906000526020600020905b815481529060010190602001808311610bd757829003601f168201915b50505050600283015460038401546004909401549293909290915060ff1685565b6000818152600260205260408120546001600160a01b0316806103a957604051637e27328960e01b81526004810184905260240161049f565b61069d838383600161104a565b6000828152600260205260408120546001600160a01b0390811690831615610c8857610c88818486611150565b6001600160a01b03811615610cc657610ca560008560008061104a565b6001600160a01b038116600090815260036020526040902080546000190190555b6001600160a01b03851615610cf5576001600160a01b0385166000908152600360205260409020805460010190555b60008481526002602052604080822080546001600160a01b0319166001600160a01b0389811691821790925591518793918516917fddf252ad1be2c89b69c2b068fc378daa952ba7f163c4a11628f55a4df523b3ef91a4949350505050565b6006546001600160a01b0316331461088d5760405163118cdaa760e01b815233600482015260240161049f565b600680546001600160a01b038381166001600160a01b0319831681179093556040519116919082907f8be0079c531659141344cd1fd0a4f28419497f9722a3daafe3b4186f6b6457e090600090a35050565b6104758282604051806020016040528060008152506111b4565b6001600160a01b038216610e1f57604051630b61174360e31b81526001600160a01b038316600482015260240161049f565b6001600160a01b03838116600081815260056020908152604080832094871680845294825291829020805460ff191686151590811790915591519182527f17307eab39ab6107e8899845ad3d59bd9653f200f220920489ca2b5937696c31910160405180910390a3505050565b6001600160a01b0383163b15610fb057604051630a85bd0160e11b81526001600160a01b0384169063150b7a0290610ece9088908890879087906004016118cd565b6020604051808303816000875af1925050508015610f09575060408051601f3d908101601f19168201909252610f069181019061190a565b60015b610f72573d808015610f37576040519150601f19603f3d011682016040523d82523d6000602084013e610f3c565b606091505b508051600003610f6a57604051633250574960e11b81526001600160a01b038516600482015260240161049f565b805160208201fd5b6001600160e01b03198116630a85bd0160e11b14610fae57604051633250574960e11b81526001600160a01b038516600482015260240161049f565b505b5050505050565b60606000610fc4836111cc565b600101905060008167ffffffffffffffff811115610fe457610fe461150d565b6040519080825280601f01601f19166020018201604052801561100e576020820181803683370190505b5090508181016020015b600019016f181899199a1a9b1b9c1cb0b131b232b360811b600a86061a8153600a850494508461101857509392505050565b808061105e57506001600160a01b03821615155b1561112057600061106e84610c15565b90506001600160a01b0383161580159061109a5750826001600160a01b0316816001600160a01b031614155b80156110ad57506110ab8184610aed565b155b156110d65760405163a9fbf51f60e01b81526001600160a01b038416600482015260240161049f565b811561111e5783856001600160a01b0316826001600160a01b03167f8c5be1e5ebec7d5bd14f71427d1e84f3dd0314c0f7b2291e5b200ac8c7c3b92560405160405180910390a45b505b5050600090815260046020526040902080546001600160a01b0319166001600160a01b0392909216919091179055565b61115b8383836112a4565b61069d576001600160a01b03831661118957604051637e27328960e01b81526004810182905260240161049f565b60405163177e802f60e01b81526001600160a01b03831660048201526024810182905260440161049f565b6111be838361130a565b61069d336000858585610e8c565b60008072184f03e93ff9f4daa797ed6e38ed64bf6a1f0160401b831061120b5772184f03e93ff9f4daa797ed6e38ed64bf6a1f0160401b830492506040015b6d04ee2d6d415b85acef81000000008310611237576d04ee2d6d415b85acef8100000000830492506020015b662386f26fc10000831061125557662386f26fc10000830492506010015b6305f5e100831061126d576305f5e100830492506008015b612710831061128157612710830492506004015b60648310611293576064830492506002015b600a83106103a95760010192915050565b60006001600160a01b038316158015906113025750826001600160a01b0316846001600160a01b031614806112de57506112de8484610aed565b8061130257506000828152600460205260409020546001600160a01b038481169116145b949350505050565b6001600160a01b03821661133457604051633250574960e11b81526000600482015260240161049f565b600061134283836000610c5b565b90506001600160a01b0381161561069d576040516339e3563760e11b81526000600482015260240161049f565b6001600160e01b031981168114610b5657600080fd5b60006020828403121561139757600080fd5b8135610ae68161136f565b60005b838110156113bd5781810151838201526020016113a5565b50506000910152565b600081518084526113de8160208601602086016113a2565b601f01601f19169290920160200192915050565b602081526000610ae660208301846113c6565b60006020828403121561141757600080fd5b5035919050565b80356001600160a01b038116811461143557600080fd5b919050565b6000806040838503121561144d57600080fd5b6114568361141e565b946020939093013593505050565b60008060006060848603121561147957600080fd5b6114828461141e565b92506114906020850161141e565b9150604084013590509250925092565b60208152815160208201526000602083015160a060408401526114c660c08401826113c6565b905060408401516060840152606084015160808401526080840151151560a08401528091505092915050565b60006020828403121561150457600080fd5b610ae68261141e565b634e487b7160e01b600052604160045260246000fd5b600067ffffffffffffffff8084111561153e5761153e61150d565b604051601f8501601f19908116603f011681019082821181831017156115665761156661150d565b8160405280935085815286868601111561157f57600080fd5b858560208301376000602087830101525050509392505050565b600080604083850312156115ac57600080fd5b823567ffffffffffffffff8111156115c357600080fd5b8301601f810185136115d457600080fd5b6115e385823560208401611523565b95602094909401359450505050565b6000806040838503121561160557600080fd5b61160e8361141e565b91506020830135801515811461162357600080fd5b809150509250929050565b6000806000806080858703121561164457600080fd5b61164d8561141e565b935061165b6020860161141e565b925060408501359150606085013567ffffffffffffffff81111561167e57600080fd5b8501601f8101871361168f57600080fd5b61169e87823560208401611523565b91505092959194509250565b600080604083850312156116bd57600080fd5b6116c68361141e565b91506116d46020840161141e565b90509250929050565b85815260a0602082015260006116f660a08301876113c6565b6040830195909552506060810192909252151560809091015292915050565b600181811c9082168061172957607f821691505b60208210810361174957634e487b7160e01b600052602260045260246000fd5b50919050565b60006001820161176f57634e487b7160e01b600052601160045260246000fd5b5060010190565b601f82111561069d57600081815260208120601f850160051c8101602086101561179d5750805b601f850160051c820191505b81811015610fae578281556001016117a9565b815167ffffffffffffffff8111156117d6576117d661150d565b6117ea816117e48454611715565b84611776565b602080601f83116001811461181f57600084156118075750858301515b600019600386901b1c1916600185901b178555610fae565b600085815260208120601f198616915b8281101561184e5788860151825594840194600190910190840161182f565b508582101561186c5787850151600019600388901b60f8161c191681555b5050505050600190811b01905550565b60408152600061188f60408301856113c6565b90508260208301529392505050565b600083516118b08184602088016113a2565b8351908301906118c48183602088016113a2565b01949350505050565b6001600160a01b0385811682528416602082015260408101839052608060608201819052600090611900908301846113c6565b9695505050505050565b60006020828403121561191c57600080fd5b8151610ae68161136f56fea26469706673582212209b7a9a84946cb216edd3d6ec5b67cfde4d6507b53d8bf2975732533e376c876264736f6c63430008140033",
  "linkReferences": {},
  "deployedLinkReferences": {}
}