{
  "_format": "hh-sol-artifact-1",
  "contractName": "PropertyShares",
  "sourceName": "contracts/PropertyShares.sol",
  "abi": [
    {
      "inputs": [
        {
          "internalType": "string",
          "name": "name",
          "type": "string"
        },
        {
          "internalType": "string",
          "name": "symbol",
          "type": "string"
        },
        {
          "internalType": "uint256",
          "name": "shares",
          "type": "uint256"
        },
        {
          "internalType": "address",
          "name": "owner",
          "type": "address"
        },
        {
          "internalType": "uint256",
          "name": "_propertyId",
          "type": "uint256"
        }
      ],
      "stateMutability": "nonpayable",
      "type": "constructor"
    },
    {
      "inputs": [
        {
          "internalType": "address",
          "name": "spender",
          "type": "address"
        },
        {
          "internalType": "uint256",
          "name": "allowance",
          "type": "uint256"
        },
        {
          "internalType": "uint256",
          "name": "needed",
          "type": "uint256"
        }
      ],
      "name": "ERC20InsufficientAllowance",
      "type": "error"
    },
    {
      "inputs": [
        {
          "internalType": "address",
          "name": "sender",
          "type": "address"
        },
        {
          "internalType": "uint256",
          "name": "balance",
          "type": "uint256"
        },
        {
          "internalType": "uint256",
          "name": "needed",
          "type": "uint256"
        }
      ],
      "name": "ERC20InsufficientBalance",
      "type": "error"
    },
    {
      "inputs": [
        {
          "internalType": "address",
          "name": "approver",
          "type": "address"
        }
      ],
      "name": "ERC20InvalidApprover",
      "type": "error"
    },
    {
      "inputs": [
        {
          "internalType": "address",
          "name": "receiver",
          "type": "address"
        }
      ],
      "name": "ERC20InvalidReceiver",
      "type": "error"
    },
    {
      "inputs": [
        {
          "internalType": "address",
          "name": "sender",
          "type": "address"
        }
      ],
      "name": "ERC20InvalidSender",
      "type": "error"
    },
    {
      "inputs": [
        {
          "internalType": "address",
          "name": "spender",
          "type": "address"
        }
      ],
      "name": "ERC20InvalidSpender",
      "type": "error"
    },
    {
      "anonymous": false,
      "inputs": [
        {
          "indexed": true,
          "internalType": "address",
          "name": "owner",
          "type": "address"
        },
        {
          "indexed": true,
          "internalType": "address",
          "name": "spender",
          "type": "address"
        },
        {
          "indexed": false,
          "internalType": "uint256",
          "name": "value",
          "type": "uint256"
        }
      ],
      "name": "Approval",
      "type": "event"
    },
    {
      "anonymous": false,
      "inputs": [
        {
          "indexed": true,
          "internalType": "uint256",
          "name": "propertyId",
          "type": "uint256"
        },
        {
          "indexed": true,
          "internalType": "address",
          "name": "from",
          "type": "address"
        },
        {
          "indexed": true,
          "internalType": "address",
          "name": "to",
          "type": "address"
        },
        {
          "indexed": false,
          "internalType": "uint256",
          "name": "amount",
          "type": "uint256"
        }
      ],
      "name": "SharesTransferred",
      "type": "event"
    },
    {
      "anonymous": false,
      "inputs": [
        {
          "indexed": true,
          "internalType": "address",
          "name": "from",
          "type": "address"
        },
        {
          "indexed": true,
          "internalType": "address",
          "name": "to",
          "type": "address"
        },
        {
          "indexed": false,
          "internalType": "uint256",
          "name": "value",
          "type": "uint256"
        }
      ],
      "name": "Transfer",
      "type": "event"
    },
    {
      "inputs": [
        {
          "internalType": "address",
          "name": "owner",
          "type": "address"
        },
        {
          "internalType": "address",
          "name": "spender",
          "type": "address"
        }
      ],
      "name": "allowance",
      "outputs": [
        {
          "internalType": "uint256",
          "name": "",
          "type": "uint256"
        }
      ],
      "stateMutability": "view",
      "type": "function"
    },
    {
      "inputs": [
        {
          "internalType": "address",
          "name": "spender",
          "type": "address"
        },
        {
          "internalType": "uint256",
          "name": "value",
          "type": "uint256"
        }
      ],
      "name": "approve",
      "outputs": [
        {
          "internalType": "bool",
          "name": "",
          "type": "bool"
        }
      ],
      "stateMutability": "nonpayable",
      "type": "function"
    },
    {
      "inputs": [
        {
          "internalType": "address",
          "name": "account",
          "type": "address"
        }
      ],
      "name": "balanceOf",
      "outputs": [
        {
          "internalType": "uint256",
          "name": "",
          "type": "uint256"
        }
      ],
      "stateMutability": "view",
      "type": "function"
    },
    {
      "inputs": [],
      "name": "decimals",
      "outputs": [
        {
          "internalType": "uint8",
          "name": "",
          "type": "uint8"
        }
      ],
      "stateMutability": "view",
      "type": "function"
    },
    {
      "inputs": [],
      "name": "getAvailableShares",
      "outputs": [
        {
          "internalType": "uint256",
          "name": "",
          "type": "uint256"
        }
      ],
      "stateMutability": "view",
      "type": "function"
    },
    {
      "inputs": [
        {
          "internalType": "address",
          "name": "account",
          "type": "address"
        }
      ],
      "name": "getOwnershipPercentage",
      "outputs": [
        {
          "internalType": "uint256",
          "name": "",
          "type": "uint256"
        }
      ],
      "stateMutability": "view",
      "type": "function"
    },
    {
      "inputs": [],
      "name": "name",
      "outputs": [
        {
          "internalType": "string",
          "name": "",
          "type": "string"
        }
      ],
      "stateMutability": "view",
      "type": "function"
    },
    {
      "inputs": [],
      "name": "propertyId",
      "outputs": [
        {
          "internalType": "uint256",
          "name": "",
          "type": "uint256"
        }
      ],
      "stateMutability": "view",
      "type": "function"
    },
    {
      "inputs": [],
      "name": "symbol",
      "outputs": [
        {
          "internalType": "string",
          "name": "",
          "type": "string"
        }
      ],
      "stateMutability": "view",
      "type": "function"
    },
    {
      "inputs": [],
      "name": "tokenIT",
      "outputs": [
        {
          "internalType": "address",
          "name": "",
          "type": "address"
        }
      ],
      "stateMutability": "view",
      "type": "function"
    },
    {
      "inputs": [],
      "name": "totalShares",
      "outputs": [
        {
          "internalType": "uint256",
          "name": "",
          "type": "uint256"
        }
      ],
      "stateMutability": "view",
      "type": "function"
    },
    {
      "inputs": [],
      "name": "totalSupply",
      "outputs": [
        {
          "internalType": "uint256",
          "name": "",
          "type": "uint256"
        }
      ],
      "stateMutability": "view",
      "type": "function"
    },
    {
      "inputs": [
        {
          "internalType": "address",
          "name": "to",
          "type": "address"
        },
        {
          "internalType": "uint256",
          "name": "amount",
          "type": "uint256"
        }
      ],
      "name": "transfer",
      "outputs": [
        {
          "internalType": "bool",
          "name": "",
          "type": "bool"
        }
      ],
      "stateMutability": "nonpayable",
      "type": "function"
    },
    {
      "inputs": [
        {
          "internalType": "address",
          "name": "from",
          "type": "address"
        },
        {
          "internalType": "address",
          "name": "to",
          "type": "address"
        },
        {
          "internalType": "uint256",
          "name": "amount",
          "type": "uint256"
        }
      ],
      "name": "transferFrom",
      "outputs": [
        {
          "internalType": "bool",
          "name": "",
          "type": "bool"
        }
      ],
      "stateMutability": "nonpayable",
      "type": "function"
    }
  ],
  "bytecode": "0x60e06040523480156200001157600080fd5b50604051620010073803806200100783398101604081905262000034916200035f565b848460036200004483826200048f565b5060046200005382826200048f565b50505060008311620000ac5760405162461bcd60e51b815260206004820181905260248201527f536861726573206d7573742062652067726561746572207468616e207a65726f60448201526064015b60405180910390fd5b6001600160a01b038216620001045760405162461bcd60e51b815260206004820152601c60248201527f4f776e65722063616e6e6f74206265207a65726f2061646472657373000000006044820152606401620000a3565b3360805260a081905260c08390526200011e828462000129565b505050505062000583565b6001600160a01b038216620001555760405163ec442f0560e01b815260006004820152602401620000a3565b620001636000838362000167565b5050565b6001600160a01b038316620001965780600260008282546200018a91906200055b565b909155506200020a9050565b6001600160a01b03831660009081526020819052604090205481811015620001eb5760405163391434e360e21b81526001600160a01b03851660048201526024810182905260448101839052606401620000a3565b6001600160a01b03841660009081526020819052604090209082900390555b6001600160a01b038216620002285760028054829003905562000247565b6001600160a01b03821660009081526020819052604090208054820190555b816001600160a01b0316836001600160a01b03167fddf252ad1be2c89b69c2b068fc378daa952ba7f163c4a11628f55a4df523b3ef836040516200028d91815260200190565b60405180910390a3505050565b634e487b7160e01b600052604160045260246000fd5b600082601f830112620002c257600080fd5b81516001600160401b0380821115620002df57620002df6200029a565b604051601f8301601f19908116603f011681019082821181831017156200030a576200030a6200029a565b816040528381526020925086838588010111156200032757600080fd5b600091505b838210156200034b57858201830151818301840152908201906200032c565b600093810190920192909252949350505050565b600080600080600060a086880312156200037857600080fd5b85516001600160401b03808211156200039057600080fd5b6200039e89838a01620002b0565b96506020880151915080821115620003b557600080fd5b50620003c488828901620002b0565b60408801516060890151919650945090506001600160a01b0381168114620003eb57600080fd5b80925050608086015190509295509295909350565b600181811c908216806200041557607f821691505b6020821081036200043657634e487b7160e01b600052602260045260246000fd5b50919050565b601f8211156200048a57600081815260208120601f850160051c81016020861015620004655750805b601f850160051c820191505b81811015620004865782815560010162000471565b5050505b505050565b81516001600160401b03811115620004ab57620004ab6200029a565b620004c381620004bc845462000400565b846200043c565b602080601f831160018114620004fb5760008415620004e25750858301515b600019600386901b1c1916600185901b17855562000486565b600085815260208120601f198616915b828110156200052c578886015182559484019460019091019084016200050b565b50858210156200054b5787850151600019600388901b60f8161c191681555b5050505050600190811b01905550565b808201808211156200057d57634e487b7160e01b600052601160045260246000fd5b92915050565b60805160a05160c051610a32620005d5600039600081816101a40152818161042f01526104600152600081816102990152818161039301526104c701526000818160f401526101f90152610a326000f3fe608060405234801561001057600080fd5b50600436106100ea5760003560e01c806370a082311161008c578063a2931fe811610066578063a2931fe814610235578063a9059cbb14610248578063dd62ed3e1461025b578063ee7a3b8e1461029457600080fd5b806370a08231146101c6578063817bc0cb146101ef57806395d89b411461022d57600080fd5b806318160ddd116100c857806318160ddd1461016b57806323b872dd1461017d578063313ce567146101905780633a98ef391461019f57600080fd5b806306d6549c146100ef57806306fdde0314610133578063095ea7b314610148575b600080fd5b6101167f000000000000000000000000000000000000000000000000000000000000000081565b6040516001600160a01b0390911681526020015b60405180910390f35b61013b6102bb565b60405161012a9190610842565b61015b6101563660046108ac565b61034d565b604051901515815260200161012a565b6002545b60405190815260200161012a565b61015b61018b3660046108d6565b610367565b6040516012815260200161012a565b61016f7f000000000000000000000000000000000000000000000000000000000000000081565b61016f6101d4366004610912565b6001600160a01b031660009081526020819052604090205490565b6001600160a01b037f00000000000000000000000000000000000000000000000000000000000000001660009081526020819052604090205461016f565b61013b6103f4565b61016f610243366004610912565b610403565b61015b6102563660046108ac565b61049c565b61016f61026936600461092d565b6001600160a01b03918216600090815260016020908152604080832093909416825291909152205490565b61016f7f000000000000000000000000000000000000000000000000000000000000000081565b6060600380546102ca90610960565b80601f01602080910402602001604051908101604052809291908181526020018280546102f690610960565b80156103435780601f1061031857610100808354040283529160200191610343565b820191906000526020600020905b81548152906001019060200180831161032657829003601f168201915b5050505050905090565b60003361035b818585610526565b60019150505b92915050565b600080610375858585610538565b905080156103ec57836001600160a01b0316856001600160a01b03167f00000000000000000000000000000000000000000000000000000000000000007f78dc4ab325d618a4100f0b44da2f25725cd94b780060f6b9e87065e9c0b12ebd866040516103e391815260200190565b60405180910390a45b949350505050565b6060600480546102ca90610960565b6001600160a01b0381166000908152602081905260408120548060000361042d5750600092915050565b7f000000000000000000000000000000000000000000000000000000000000000060000361045e5750600092915050565b7f000000000000000000000000000000000000000000000000000000000000000061048b826127106109b0565b61049591906109c7565b9392505050565b6000806104a9848461055c565b9050801561049557836001600160a01b0316336001600160a01b03167f00000000000000000000000000000000000000000000000000000000000000007f78dc4ab325d618a4100f0b44da2f25725cd94b780060f6b9e87065e9c0b12ebd8660405161051791815260200190565b60405180910390a49392505050565b610533838383600161056a565b505050565b600033610546858285610645565b6105518585856106be565b506001949350505050565b60003361035b8185856106be565b6001600160a01b0384166105995760405163e602df0560e01b8152600060048201526024015b60405180910390fd5b6001600160a01b0383166105c357604051634a1406b160e11b815260006004820152602401610590565b6001600160a01b038085166000908152600160209081526040808320938716835292905220829055801561063f57826001600160a01b0316846001600160a01b03167f8c5be1e5ebec7d5bd14f71427d1e84f3dd0314c0f7b2291e5b200ac8c7c3b9258460405161063691815260200190565b60405180910390a35b50505050565b6001600160a01b0383811660009081526001602090815260408083209386168352929052205460001981101561063f57818110156106af57604051637dc7a0d960e11b81526001600160a01b03841660048201526024810182905260448101839052606401610590565b61063f8484848403600061056a565b6001600160a01b0383166106e857604051634b637e8f60e11b815260006004820152602401610590565b6001600160a01b0382166107125760405163ec442f0560e01b815260006004820152602401610590565b6105338383836001600160a01b03831661074357806002600082825461073891906109e9565b909155506107b59050565b6001600160a01b038316600090815260208190526040902054818110156107965760405163391434e360e21b81526001600160a01b03851660048201526024810182905260448101839052606401610590565b6001600160a01b03841660009081526020819052604090209082900390555b6001600160a01b0382166107d1576002805482900390556107f0565b6001600160a01b03821660009081526020819052604090208054820190555b816001600160a01b0316836001600160a01b03167fddf252ad1be2c89b69c2b068fc378daa952ba7f163c4a11628f55a4df523b3ef8360405161083591815260200190565b60405180910390a3505050565b600060208083528351808285015260005b8181101561086f57858101830151858201604001528201610853565b506000604082860101526040601f19601f8301168501019250505092915050565b80356001600160a01b03811681146108a757600080fd5b919050565b600080604083850312156108bf57600080fd5b6108c883610890565b946020939093013593505050565b6000806000606084860312156108eb57600080fd5b6108f484610890565b925061090260208501610890565b9150604084013590509250925092565b60006020828403121561092457600080fd5b61049582610890565b6000806040838503121561094057600080fd5b61094983610890565b915061095760208401610890565b90509250929050565b600181811c9082168061097457607f821691505b60208210810361099457634e487b7160e01b600052602260045260246000fd5b50919050565b634e487b7160e01b600052601160045260246000fd5b80820281158282048414176103615761036161099a565b6000826109e457634e487b7160e01b600052601260045260246000fd5b500490565b808201808211156103615761036161099a56fea264697066735822122002d7cdeb1dbdf6d6a258b9721e8f08f949ca6d0ebd00d2c573172dd7ff8b8ec964736f6c63430008140033",
  "linkReferences": {},
  "deployedLinkReferences": {}
}